:100000000C9463000C948B000C948B000C948B006C
:100010000C948B000C948B000C948B000C948B0034
:100020000C948B000C948B000C948B000C94630349
:100030000C948B000C948B000C948B000C948B0014
:100040000C9419030C948B000C9467070C944107D3
:100050000C948B000C948B000C948B000C948B00F4
:100060000C9438040C948B0000000000250028003C
:100070002B000000000023002600290000000000E3
:10008000240027002A0001020408102040800102F9
:1000900004081020010204081020040404040404CD
:1000A000040402020202020203030303030300002A
:1000B0000008000201000003040700000000000027
:1000C0000000800C270811241FBECFEFD8E0DEBF50
:1000D000CDBF11E0A0E0B1E0EEE1F0E202C005909A
:1000E0000D92AC34B107D9F723E0ACE4B1E001C024
:1000F0001D92A531B207E1F710E0C2E6D0E004C0DE
:100100002197FE010E94E10DC136D107C9F70E9477
:100110002D080C9402100C940000FC01538D448DAA
:10012000252F30E0842F90E0821B930B541710F0A2
:10013000CF96089501970895FC01918D828D9817AF
:1001400061F0828DDF01A80FB11D5D968C91928DBB
:100150009F5F9F73928F90E008958FEF9FEF0895B8
:10016000FC01918D828D981731F0828DE80FF11D81
:10017000858D90E008958FEF9FEF0895FC01918D9C
:10018000228D892F90E0805C9F4F821B91098F7395
:100190009927089580E090E0892B29F00E94350787
:1001A00081110C9400000895833081F028F481308F
:1001B00099F08230A1F008958730A9F08830B9F025
:1001C0008430D1F4809180008F7D03C080918000C5
:1001D0008F7780938000089584B58F7702C084B5AF
:1001E0008F7D84BD08958091B0008F7703C080918A
:1001F000B0008F7D8093B000089585ED8093BC00A2
:100200008091BC0084FDFCCF1092F40108954091D0
:100210009101262F30E0240F311D21323105DCF40D
:100220002091F4012430C9F4FC0180E090E08617AD
:1002300058F4309191012191DC01A159BE4FA30FD7
:10024000B11D2C930196F3CF80919101680F6093BB
:10025000910180E0089581E0089582E00895089575
:10026000E091C1018091C001E81730F4F0E0E15B5A
:10027000FE4F808190E008958FEF9FEF0895909159
:10028000C1018091C001981750F4E92FF0E0E15BC3
:10029000FE4F208130E09F5F9093C10102C02FEF9D
:1002A0003FEFC90108958091C00190E02091C10104
:1002B000821B91090895CF92DF92EF92FF920F93E4
:1002C0001F93CF93DF937C01262F972F8A01809174
:1002D000F501882391F0C62FD72F6E01C40ED51ECD
:1002E000CC15DD0571F06991D701ED91FC9101907C
:1002F000F081E02DC7010995F3CF642F822F0E9472
:100300000701C801DF91CF911F910F91FF90EF90EE
:10031000DF90CF900895CF93DF931F92CDB7DEB7D4
:1003200069832091F5012223D1F020911802203217
:1003300040F021E030E0FC013383228380E090E054
:1003400015C08091F601E82FF0E0E950FE4F998149
:1003500090838F5F8093F6018093180205C061E05F
:10036000CE0101960E94070181E090E00F90DF919D
:10037000CF910895089580E090E00895FC01848D68
:10038000DF01A80FB11DA35ABF4F2C91848D90E0BF
:1003900001968F739927848FA689B7892C93A0899A
:1003A000B1898C9180648C93938D848D981306C051
:1003B0000288F389E02D80818F7D80830895EF92FC
:1003C000FF920F931F93CF93DF93EC0181E0888F0F
:1003D0009B8D8C8D981305C0E889F989808185FDF6
:1003E00024C0F62E0B8D10E00F5F1F4F0F731127E7
:1003F000E02E8C8DE8120CC00FB607FCFACFE8890E
:10040000F989808185FFF5CFCE010E94BE01F1CF31
:100410008B8DFE01E80FF11DE35AFF4FF0820B8F29
:10042000EA89FB898081806207C0EE89FF89608349
:10043000E889F98980818064808381E090E0DF91A0
:10044000CF911F910F91FF90EF900895CF93DF937D
:10045000EC01888D8823C9F0EA89FB89808185FDBC
:1004600005C0A889B9898C9186FD0FC00FB607FC1D
:10047000F5CF808185FFF2CFA889B9898C9185FF5E
:10048000EDCFCE010E94BE01E7CFDF91CF9108955D
:10049000CF93DF93282F30E0F901E255FF4F84918D
:1004A000F901EA57FF4FD491F901E656FF4FC49185
:1004B000CC2391F081110E94D400EC2FF0E0EE0FDC
:1004C000FF1FEE58FF4FA591B491EC91ED2381E011
:1004D00090E021F480E002C080E090E0DF91CF91D5
:1004E00008951F93CF93DF93282F30E0F901E25551
:1004F000FF4F8491F901EA57FF4FD491F901E65675
:10050000FF4FC491CC23C9F0162F81110E94D40053
:10051000EC2FF0E0EE0FFF1FE859FF4FA591B491CB
:100520008FB7F894111105C09C91ED2FE095E92348
:1005300002C0EC91ED2BEC938FBFDF91CF911F9117
:100540000895CF93DF9390E0FC01EA57FF4F249189
:10055000FC01E656FF4F8491882361F190E0880FFB
:10056000991FFC01E458FF4FC591D491FC01E85953
:10057000FF4FA591B491611109C09FB7F89488818C
:10058000209582238883EC912E230BC0623061F486
:100590009FB7F8943881822F809583238883EC91CC
:1005A0002E2B2C939FBF06C08FB7F894E8812E2B7B
:1005B00028838FBFDF91CF9108958E3008F08E5041
:1005C0008770806480937C0080917A00806480933F
:1005D0007A0080917A0086FDFCCF8091780020918E
:1005E000790090E0922B08953FB7F8948091BC0178
:1005F0009091BD01A091BE01B091BF0126B5A89B0D
:1006000005C02F3F19F00196A11DB11D3FBFBA2FA4
:10061000A92F982F8827820F911DA11DB11DBC0104
:10062000CD0142E0660F771F881F991F4A95D1F7C9
:1006300008951F920F920FB60F9211242F933F939C
:100640008F939F93AF93BF938091B8019091B9011D
:10065000A091BA01B091BB013091B70123E0230F03
:100660002D3720F40196A11DB11D05C026E8230FEA
:100670000296A11DB11D2093B7018093B8019093FC
:10068000B901A093BA01B093BB018091BC019091D4
:10069000BD01A091BE01B091BF010196A11DB11D88
:1006A0008093BC019093BD01A093BE01B093BF01A4
:1006B000BF91AF919F918F913F912F910F900FBE5E
:1006C0000F901F9018951F920F920FB60F92112442
:1006D0002F933F934F935F936F937F938F939F934A
:1006E000AF93BF93EF93FF938091B60187FF05C04F
:1006F00010928500109284001BC02091B601022E3A
:10070000000C330B8091E60290E02817390784F43F
:100710008091B601082E000C990BFC01EE0FFF1F13
:100720008E0F9F1FFC01EE53FD4F808186FD15C08B
:100730008091B6018F5F8093B6012091B601022EA1
:10074000000C330B8091E60290E028173907C4F4BF
:100750008091B6018C3064F113C08091B601082EEF
:10076000000C990BFC01EE0FFF1F8E0F9F1FFC0169
:10077000EE53FD4F808160E08F730E947102D8CFED
:100780008091840090918500049680349C4918F4EF
:1007900080E49CE905C080918400909185000496D6
:1007A00090938900809388008FEF8093B6013BC0BF
:1007B00020918400309185008091B601082E000CB4
:1007C000990BFC01EE0FFF1F8E0F9F1FFC01EE53D4
:1007D000FD4F81819281820F931F909389008093B6
:1007E00088008091B601082E000C990BFC01EE0FD9
:1007F000FF1F8E0F9F1FFC01EE53FD4F808186FF70
:1008000012C08091B601082E000C990BFC01EE0F6E
:10081000FF1F8E0F9F1FFC01EE53FD4F808161E093
:100820008F730E947102FF91EF91BF91AF919F91E1
:100830008F917F916F915F914F913F912F910F9089
:100840000FBE0F901F9018959FB7F8948091C2012A
:10085000882319F081508093C2018091C2018111D7
:1008600005C08CB58F7B8CBD1092C5019FBF0895CC
:100870001F920F920FB60F9211242F933F934F9315
:100880005F936F937F938F939F93AF93BF93EF93F8
:10089000FF938091B900887F803609F49CC068F589
:1008A000883209F45BC090F4803109F454C038F404
:1008B000882309F4F6C0883009F44DC0F6C08831A9
:1008C00009F44CC0803209F45DC0EFC0803409F4F3
:1008D00068C048F4803309F455C0883309F0E5C096
:1008E0008093F201D8C0803509F44FC0883509F4EF
:1008F0005DC0883409F0D9C0D6C0883909F4C7C0B2
:10090000A8F4883709F467C038F4883609F463C05E
:10091000803709F460C0C9C0883809F4B8C080398C
:1009200009F45FC0803809F0C0C05BC0803B09F4A7
:1009300086C038F4803A09F466C0883A09F47FC06A
:10094000B4C0803C09F4A7C0883C09F4A4C0883B2B
:1009500009F48AC0AAC08091CF0110C09091F10122
:100960008091F001981770F5E091F10181E08E0F10
:100970008093F101F0E0E053FE4F80818093BB0053
:1009800085EC86C08093F2018EC0E091F10181E098
:100990008E0F8093F1018091BB00F0E0E053FE4F99
:1009A00080839091F1018091F0016EC0E091F1019E
:1009B00081E08E0F8093F1018091BB00F0E0E05365
:1009C000FE4F80838091F30181116DC081E080939F
:1009D000CE0184EA61C083E08093F4011092B501F6
:1009E000CFCF8091B501803208F051C0E091B501C0
:1009F00081E08E0F8093B5018091BB00F0E0EB5653
:100A0000FE4F8083BDCF85EC8093BC001092F40133
:100A10008091B501803230F4E091B501F0E0EB5601
:100A2000FE4F10826091B50170E0E0919301F0916A
:100A3000940185E991E009951092B50136C084E0F2
:100A40008093F4011092920110929101E0918F0134
:100A5000F0919001099580919101811105C081E08B
:100A60008093910110926F01E091920181E08E0FCD
:100A700080939201F0E0E159FE4F80818093BB00AA
:100A80009091920180919101981708F479CF85E8AF
:100A90008093BC000AC085EC8093BC001092F401E6
:100AA00004C01092F2010E94FD00FF91EF91BF91EE
:100AB000AF919F918F917F916F915F914F913F91F6
:100AC0002F910F900FBE0F901F9018958C3539F411
:100AD0008CE590E00E94990785EC90E008C08B318E
:100AE00041F48CE590E00E94990781EB90E00C9432
:100AF0009907682F89E192E00C94DF01CF93209150
:100B00004E01C0914D0180914C019091F4019111E1
:100B1000FCCFC13208F0C0E291E09093F4012927A4
:100B20002093F3012FEF2093F2011092F1012C0F8B
:100B30002093F0019093CF019091CF01880F892BE2
:100B40008093CF018091CE01813061F41092CE016B
:100B50008091CF018093BB008091BC0083FDF8CFD2
:100B600085EC01C085EE8093BC008091F40181305A
:100B7000E1F38091F1018C1710F4C091F101A0ED27
:100B8000B1E02FE431E0F9018E2F821B8C1718F4AD
:100B90008D918193F9CF1092C101C093C001109241
:100BA0004E018C2F0E946605CC2341F086EB92E02B
:100BB0000E943F010E946605C150F6CF1092CC0101
:100BC000CF9108959091C301E091CA01992309F151
:100BD0001092C301813B59F0853C91F481E08E0F66
:100BE0008093CA01F0E0EA53FE4F8CE524C081E017
:100BF0008E0F8093CA01F0E0EA53FE4F8BE11BC0D9
:100C000081E08E0F8093CA01F0E0EA53FE4F8FEF30
:100C100012C08B3131F08C3539F481E08093C301FF
:100C20000BC01092CB0108C091E09E0F9093CA01B7
:100C3000F0E0EA53FE4F808381E09091CA0196175D
:100C400008F480E00895CF93DF939091CC01911147
:100C50004AC0833509F445C088F4863449F130F43C
:100C6000813401F1853409F4A5C0AAC08C34E1F0C7
:100C7000823509F0A5C010924E012CC08C3671F15E
:100C800040F48735B9F0813609F09AC080914C0163
:100C900093C08237E1F0873709F092C081E08093FA
:100CA0004E0108C082E001C083E08093CC0188C07F
:100CB00084E0FBCF80914C0191E09093F50180930B
:100CC00017021092F6011092180285E0EECF81E033
:100CD00080934E01DF91CF910C947E0580914D0160
:100CE0006BC080E069C0923019F480934C010BC056
:100CF000933061F4813228F081E08093CC018CE460
:100D00003CC080934D011092CC015AC0C82F943042
:100D100019F5282F30E0A0E1B7E20E94C60D9B0133
:100D2000AC0160E074E284EF90E00E94A40DDA016F
:100D3000C9014097A109B109B695A79597958795DF
:100D40008093B8006C2F89E192E00E94DF0110923D
:100D5000CC011092CB0134C0953091F5D0914D016A
:100D6000DD2389F0682F86EB92E00E948B01892BAE
:100D700039F481E08093CC0187E58093000120C0A5
:100D8000D150D0934D0180914D01811119C0109225
:100D9000CC0180914E01C1E08C270E949E078823E0
:100DA00029F0C093CC0183E5809300011092CB0120
:100DB00010924E0180910001DF91CF910C94660555
:100DC000DF91CF9108958091C501882361F09FB78D
:100DD000F8942091C5018091C401213019F48DBB94
:100DE0009FBF08958FBF08951092CB011092CD013F
:100DF0001092C3010E94E3060E94240481E00E9435
:100E00009E071092CC0110924C0110924D0110924D
:100E10004E010895CF92DF92EF92FF920F931F93AE
:100E2000CF93DF936C017A018B01C0E0D0E0CE1547
:100E3000DF0589F0D8016D918D01D601ED91FC910E
:100E40000190F081E02DC6010995892B11F47E01F6
:100E500002C02196ECCFC701DF91CF911F910F9176
:100E6000FF90EF90DF90CF90089589E192E00E948B
:100E7000BE0021E0892B09F420E0822F08950E9412
:100E8000DE0F1F920F920FB60F9211242F933F93F4
:100E90004F935F936F937F938F939F93AF93BF9382
:100EA000EF93FF9389E192E00E94BE01FF91EF91E1
:100EB000BF91AF919F918F917F916F915F914F9172
:100EC0003F912F910F900FBE0F901F9018951F927A
:100ED0000F920FB60F9211242F938F939F93EF933E
:100EE000FF93E0912902F0912A028081E0912F0284
:100EF000F091300282FD12C09081809132028F5FAA
:100F00008F7320913302821751F0E0913202F0E0AA
:100F1000E75EFD4F958F8093320201C08081FF9183
:100F2000EF919F918F912F910F900FBE0F901F9077
:100F30001895682F89E192E00C94DF01382F2091F9
:100F4000180290911702213208F049C08091F401F3
:100F50008111FCCF42E04093F4013093F3013FEF65
:100F60003093F2011092F1012093F001A7EFB1E06C
:100F700040ED51E0FA013E2F341B321718F43D9139
:100F80003193F9CF1092CF012091CF01990F922B7D
:100F90009093CF019091CE01913061F41092CE01E7
:100FA0009091CF019093BB009091BC0093FDF8CF3E
:100FB00095EC01C095EE9093BC009091F4019230B5
:100FC000E1F39091F2019F3F79F08091F20180323C
:100FD00041F08091F201803331F084E005C081E07E
:100FE00003C082E001C083E01092F6011092180263
:100FF0001092F50108951F93CF93DF93182FC0919E
:101000008600D0918700D0592091860030918700CA
:101010002C1B3D0B21303048B8F7812F0E9448022D
:10102000019791F320918600309187002C1B3D0B96
:101030002130304838F0812F0E944802019791F703
:1010400080E001C08FEFDF91CF911F9108958091D3
:101050000B0390910C030C947C0ECF93DF931F92A3
:10106000CDB7DEB7789484B5826084BD84B58160E5
:1010700084BD85B5826085BD85B5816085BD809163
:101080006E00816080936E001092810080918100DB
:1010900082608093810080918100816080938100D3
:1010A000809180008160809380008091B100846095
:1010B0008093B1008091B00081608093B0008091F6
:1010C0007A00846080937A0080917A0082608093B5
:1010D0007A0080917A00816080937A0080917A0012
:1010E000806880937A001092C100E0912902F0910B
:1010F0002A0282E08083E0912502F091260210828C
:10110000E0912702F091280288E08083109231025A
:10111000E0912D02F0912E0286E08083E0912B0277
:10112000F0912C02808180618083E0912B02F0910C
:101130002C02808188608083E0912B02F0912C0248
:10114000808180688083E0912B02F0912C02808165
:101150008F7D808361E082E10E94A10261E082E1F3
:101160000E94710261E083E10E94A10261E083E1DB
:101170000E9471021092C1011092C0011092F601FA
:10118000109218021092F40181E08093F301109202
:10119000CE0161E082E10E94710261E083E10E9480
:1011A00071028091B9008E7F8093B9008091B9005F
:1011B0008D7F8093B90088E48093B80085E48093A4
:1011C000BC008CE08093B80061E08AE00E94A1023C
:1011D00061E08AE00E9471020E94F4062BEE622E0A
:1011E00025E0722E34EB832E912CA12CB12C89E1B9
:1011F00092E00E94BE00892B09F47FC389E192E04E
:101200000E949C008093CD018B31C9F561E083E0A1
:101210000E94A10261E083E00E9471020E94F40238
:101220001B012C0194E6C92ED12CE12CF12C0E943B
:10123000F402DC01CB0182199309A409B509883EA7
:101240009340A105B10558F021E0C21AD108E10888
:10125000F10838EE230E33E0331E411C511CC1143B
:10126000D104E104F10419F761E083E00E94A102D6
:1012700060E083E00E9471020E94F4063EC39091F8
:10128000CC01913009F42DC39091CB01933409F432
:1012900057C288F4933309F49BC230F4992301F1C7
:1012A000923309F477C21BC3943309F4CEC291344C
:1012B00009F43EC114C3993409F476C038F4943467
:1012C00009F488C0963409F415C209C3903509F4AD
:1012D0003FC1933509F49EC19F3409F000C36FC02C
:1012E0001092CA018093CB01833309F5E09101018B
:1012F000E43008F0FAC2F0E0E85FFE4F80819091A0
:10130000C501992379F09FB7F8942091C501213048
:1013100039F42DB32093C4012DB32DBB9FBF02C060
:101320009093C4018C7081658CBD1DBCDEC28F336F
:1013300009F0DBC2EDB6FEB6C0900F03D0901003EB
:10134000C60101962DB73EB7281B390B0FB6F8948E
:101350003EBF0FBE2DBF0DB71EB70F5F1F4F892BAE
:10136000A1F00115110589F0C114D10411F4F8019F
:101370000BC060910B0370910C03A601C8010E9481
:10138000F30FF801EC0DFD1D10828C2D0E946605F7
:10139000A601B80189E192E00E940A070FB6F8940D
:1013A000FEBE0FBEEDBE98C261E00E94E20588233A
:1013B00009F49BC28091C6010E944802BEC162E04E
:1013C0000E94E205882309F490C26091C7018091D0
:1013D000C6011DC162E00E94E205882309F485C2AE
:1013E0008091C701811102C061E003C0813021F406
:1013F00060E08091C60195C0823009F094C05090A1
:10140000C601FBE0F51508F46DC061E0852D0E9472
:10141000A102052D10E06801CC0CDD1CC601800F77
:10142000911F9C0129513D4F7901F90180818C3038
:1014300008F079C061E0852D0E94A102F70180814A
:10144000282F30E0A901440F551F240F351FF90143
:10145000EE53FD4F952D9F732081207C522E592AEB
:101460005082F701118212826CE00E94D50DFCE0DF
:101470008F9FB001112420E030E0A901460F571FD3
:10148000FA01EE0FFF1FE40FF51FEE53FD4F9081A1
:1014900096FD16C02F5F3F4F2C30310571F781113B
:1014A0000FC01092800082E080938100109285002E
:1014B00010928400B19A80916F00826080936F00D7
:1014C0000C0D1D1DF801E951FD4FE081F0E0CF0149
:1014D000880F991FE80FF91FEE53FD4F808180643C
:1014E000808321C08CE9850D8C30E8F48093C6019F
:1014F000282F30E0F901EE0FFF1F2E0F3F1FF901DB
:10150000E951FD4FE081F0E09F01220F331FE20F10
:10151000F31FEE53FD4F908196FF05C09F7B908394
:1015200061E00E94A1028FEF90E00E949907D4C170
:1015300061E00E94E205882309F4D7C18091C601C9
:101540000E94DD0299830E9466059981892FF5C06A
:1015500062E00E94E205882309F4C7C1E090C70158
:101560000E2D10E0F090C60161E08F2D0E94A102C7
:101570000115110509F447C00F3F110509F445C0D5
:10158000EF2DF0E0E255FF4FE491E330F9F048F43D
:10159000E130B9F0E230A1F584B5806284BDE8BCE9
:1015A000C2CFE730E9F0E83019F1E43049F5809135
:1015B000800080628093800010938B0000938A00EB
:1015C000B2CF84B5806884BDE7BCADCF8091800088
:1015D0008068809380001093890000938800A3CFD7
:1015E0008091B00080688093B000E092B3009BCF00
:1015F0008091B00080628093B000E092B40093CFFD
:101600000038110514F460E001C061E08F2D0E94E4
:10161000710289CF62E00E94E205882309F465C166
:10162000E091C601EC3008F060C1A091C701F0E084
:10163000CF01880F991FE80FF91FE951FD4F9281E3
:101640008181D0802BE02D1508F46DCF58E5E52E73
:1016500052E0F52EE91AF10897FDF394EE0CFF1C09
:10166000EE0CFF1C08E810E0081B110987FD13951C
:10167000000F111F000F111F1801012E000C44084C
:101680005508B0E0A53BB10514F0A4EBB0E0A7010C
:101690000F2C000C660B770B9A01AB012219330952
:1016A000440955090E94650DA50194010E943B0D56
:1016B000DA01C901820D931DA41DB51D8017910784
:1016C0002CF08C01E816F9060CF487010250110980
:1016D000000F111F2FB7F8948D2D90E0FC01EE0F35
:1016E000FF1F8E0F9F1FFC01EE53FD4F12830183DE
:1016F0002FBF19CF61E00E94E205882309F4F5C0ED
:101700001091C601812F0E94FB07882319F00FEF6B
:101710001FEF0FC0E0908600F0908700812F0E949D
:10172000FB078111F4CF00918600109187000E19FC
:101730001F09802F0E946605812F0E946605CCC07C
:1017400063E00E94E205882309F4CFC01091C6012E
:1017500061E0812F0E9471020091C8010023A9F06D
:1017600080918600909187008091C7010E94DD02E0
:1017700096958795969587950E94660501500093EA
:10178000C801C3010197F1F7E7CF60E0812F0E9404
:101790007102A2C09091C301992389F01092C301F4
:1017A000813B21F0853C21F48CE50FC08BE10DC01D
:1017B00081E08093CC0185E58093000196C08C3553
:1017C00021F481E08093C30190C00E9423068DC064
:1017D00090910101943060F59091C3019923A1F09B
:1017E0001092C301813B49F0853C11F58CE58EBD1B
:1017F00000000DB407FEFDCF19C08BE18EBD0000C7
:101800000DB407FEFDCF12C08C3521F481E080932A
:10181000C3010EC08B3129F40E94E3061092CB0164
:1018200007C08EBD00000DB407FEFDCF8EB501C010
:101830008FEF9091C301911158C09091CB019923E2
:1018400009F453C00E94660550C0843030F03FEF69
:10185000309301010E94240439C089830E9424042A
:101860008981809301011FB7F8948091C201811191
:1018700027C0E4EAF0E08491E0E9F0E09491E82FF9
:10188000F0E0EE0FFF1FE458FF4FA591B4918C914B
:10189000982321F461E08AE00E94710261E08AE00D
:1018A0000E94A1028CB580618CBD8CB580648CBD1A
:1018B00061E08DE00E94A10261E08BE00E94A10244
:1018C0008091C2018F5F8093C2011FBF60910101AF
:1018D00089E192E00E94DF011092CB0106C00E94D4
:1018E000F4068BE190E00E9499078091CC01813051
:1018F00021F48BE190E00E9499070E94CA0077CC06
:1019000010921C0210921B0288EE93E0A0E0B0E05F
:1019100080931D0290931E02A0931F02B093200299
:1019200020E131E030931A022093190225EC30E0D7
:10193000309326022093250224EC30E030932802D5
:101940002093270220EC30E030932A0220932902D2
:1019500021EC30E030932C0220932B0222EC30E07B
:1019600030932E0220932D0226EC30E0309330028B
:1019700020932F02109232021092330210923402FE
:10198000109235021092B9021092B8028093BA02F6
:101990009093BB02A093BC02B093BD0282E291E09F
:1019A0009093B7028093B60210920C0310920B032F
:1019B00010920E0310920D031092100310920F0359
:1019C0006BE170E080E090E00E94140F009799F0C6
:1019D00090930C0380930B032AE130E030930E03C5
:1019E00020930D0320910F0330911003232BC1F599
:1019F000FC01108235C080910B0390910C0300977D
:101A000011F00E947C0E10920C0310920B031092A6
:101A1000100310920F0310920E0310920D03809189
:101A2000E602A7EEB2E09FEF48EB5BE08C3078F483
:101A30008C93282F30E0F901EE0FFF1F2E0F3F1F70
:101A4000F901EE53FD4F528341838F5F01C09C9398
:101A50001396F3E0AB30BF0749F78093E602089591
:101A60002AE130E03093100320930F0360E371E02C
:101A70000E94EC0FD4CF052E97FB1EF400940E9419
:101A8000520D57FD07D00E94A40D07FC03D04EF461
:101A90000C94520D50954095309521953F4F4F4FE6
:101AA0005F4F089590958095709561957F4F8F4F0A
:101AB0009F4F08950E94C60DA59F900DB49F900D55
:101AC000A49F800D911D11240895B7FF0C945A0D09
:101AD0000E945A0D821B930B08952F923F924F92B2
:101AE0005F926F927F928F929F92AF92BF92CF92AE
:101AF000DF92EF92FF920F931F93CF93DF93CDB7B7
:101B0000DEB7CA1BDB0B0FB6F894DEBF0FBECDBF2E
:101B100009942A88398848885F846E847D848C84FF
:101B20009B84AA84B984C884DF80EE80FD800C8108
:101B30001B81AA81B981CE0FD11D0FB6F894DEBFEB
:101B40000FBECDBFED010895A1E21A2EAA1BBB1B4B
:101B5000FD010DC0AA1FBB1FEE1FFF1FA217B30779
:101B6000E407F50720F0A21BB30BE40BF50B661F8F
:101B7000771F881F991F1A9469F760957095809553
:101B800090959B01AC01BD01CF010895A29FB001CA
:101B9000B39FC001A39F700D811D1124911DB29FA1
:101BA000700D811D1124911D0895991B79E004C0C9
:101BB000991F961708F0961B881F7A95C9F780958C
:101BC0000895EE0FFF1F0590F491E02D0994CF9337
:101BD000DF938230910510F482E090E0E0911303EE
:101BE000F091140320E030E0C0E0D0E0309711F134
:101BF0004081518148175907C0F04817590761F4CF
:101C000082819381209719F09B838A832BC09093C4
:101C100014038093130326C02115310519F04217D0
:101C2000530718F49A01BE01DF01EF010280F3812E
:101C3000E02DDCCF2115310509F1281B390B2430AB
:101C4000310590F412968D919C9113976115710551
:101C500021F0FB019383828304C09093140380934B
:101C60001303FD01329644C0FD01E20FF31F81937F
:101C70009193225031092D933C933AC02091110346
:101C800030911203232B41F420910401309105017E
:101C9000309312032093110320910201309103012C
:101CA0002115310541F42DB73EB740910601509101
:101CB0000701241B350BE0911103F0911203E21789
:101CC000F307A0F42E1B3F0B2817390778F0AC015F
:101CD0004E5F5F4F2417350748F04E0F5F1F50933C
:101CE0001203409311038193919302C0E0E0F0E06E
:101CF000CF01DF91CF9108950F931F93CF93DF937F
:101D0000009709F48CC0FC01329713821282009173
:101D10001303109114030115110581F42081318101
:101D2000820F931F20911103309112032817390756
:101D300079F5F0931203E093110371C0D80140E0EC
:101D400050E0AE17BF0750F412962D913C911397B7
:101D5000AD012115310509F1D901F3CF9D01DA015A
:101D60003383228360817181860F971F82179307C7
:101D700069F4EC0128813981260F371F2E5F3F4F10
:101D8000318320838A819B8193838283452B29F42D
:101D9000F0931403E093130342C01396FC93EE9365
:101DA0001297ED01499159919E01240F351FE217B9
:101DB000F30771F480819181840F951F029611962B
:101DC0009C938E938281938113969C938E9312970A
:101DD000E0E0F0E0D80112968D919C911397009766
:101DE00019F0F8018C01F6CF8D919C9198012E5F2E
:101DF0003F4F820F931F2091110330911203281738
:101E0000390769F4309729F41092140310921303E0
:101E100002C0138212821093120300931103DF9108
:101E2000CF911F910F910895A0E0B0E0EAE1FFE0AB
:101E30000C94710DEC01009721F4CB010E94E70D89
:101E4000B8C0FC01E60FF71F9C0122503109E217D0
:101E5000F30708F4ACC0D9010D911C911197061736
:101E60001707B0F00530110508F49FC0C8010497AA
:101E70008617970708F499C002501109061B170B23
:101E8000019311936D937C93CF010E947C0E8DC0C2
:101E90005B01A01AB10A4C01800E911EA0911303A0
:101EA000B091140340E050E0E12CF12C109709F4BC
:101EB0004AC0A815B905D1F56D907C9011976301C2
:101EC00082E0C80ED11CCA14DB0480F1A3014A19B8
:101ED0005B096A0182E0C80ED11C1296BC90129771
:101EE0001396AC91B5E0CB16D10440F0B282A38337
:101EF00051834083D9016D937C930AC00E5F1F4FBD
:101F0000C301800F911FF90191838083EB2DFA2F7C
:101F1000E114F10431F0D7011396FC93EE9312977C
:101F200044C0F0931403E09313033FC08D919C9140
:101F300011974817590708F4AC017D0112960D90CE
:101F4000BC91A02DB3CF80911103909112038815FD
:101F50009905E1F446175707C8F480910201909162
:101F60000301009741F48DB79EB74091060150914F
:101F70000701841B950BE817F907C8F4F0931203C7
:101F8000E0931103F901718360830FC0CB010E94BC
:101F9000E70D7C01009759F0A801BE010E94E30FF4
:101FA000CE010E947C0EC70104C0CE0102C080E0B9
:101FB00090E0CDB7DEB7EEE00C948D0D81E090E0BF
:101FC000F8940C940210FB01DC0102C001900D9208
:101FD00041505040D8F70895FB01DC0101900D926B
:101FE0000020E1F70895FB01DC014150504048F02A
:101FF00001900D920020C9F701C01D924150504040
:10200000E0F7089510E0C2E6D0E004C0FE010E94AF
:0E201000E10D2196C336D107C9F7F894FFCF32
:10201E004EFF0000150380000004080C00000000B5
:10202E00DF010A078D002602BE009C00B0000000F2
:10203E0000008B015B01BB012F0153013F013001F9
:10204E0047534F462041726475696E6F20494F2D7C
:0C205E0042726964676520312E39000071
:00000001FF
