:100000000C9462000C948A000C948A000C948A0070
:100010000C948A000C948A000C948A000C948A0038
:100020000C948A000C948A000C948A000C94880525
:100030000C948A000C948A000C948A000C948A0018
:100040000C94BB040C948A000C94A3030C947D03C1
:100050000C948A000C948A000C948A000C948A00F8
:100060000C945D060C948A00000000080002010058
:100070000003040700000000000000000000000072
:10008000240027002A0001020408102040800102F9
:1000900004081020010204081020040404040404CD
:1000A000040402020202020203030303030300002A
:1000B0000000250028002B0000000000230026007F
:1000C0002900901011241FBECFEFD8E0DEBFCDBFB6
:1000D00011E0A0E0B1E0E8E4F8E202C005900D9282
:1000E000AC36B107D9F723E0ACE6B1E001C01D9210
:1000F000A934B207E1F710E0C2E6D0E004C02197CE
:10010000FE010E941714C136D107C9F70E941309D6
:100110000C9422140C940000CF92DF92EF92FF9285
:100120000F931F93CF93DF936C017A018B01C0E093
:10013000D0E0CE15DF0589F0D8016D918D01D60193
:10014000ED91FC910190F081E02DC6010995892B7C
:1001500011F47E0102C02196ECCFC701DF91CF914F
:100160001F910F91FF90EF90DF90CF900895FC01C9
:10017000538D448D252F30E0842F90E0821B930B0C
:10018000541710F0CF96089501970895FC01918DB2
:10019000828D981761F0828DDF01A80FB11D5D96E9
:1001A0008C91928D9F5F9F73928F90E008958FEF57
:1001B0009FEF0895FC01918D828D981731F0828D0B
:1001C000E80FF11D858D90E008958FEF9FEF089562
:1001D000FC01918D228D892F90E0805C9F4F821BC6
:1001E00091098F73992708958DE292E00E94E800AB
:1001F00021E0892B09F420E0822F0895FC01848DF1
:10020000DF01A80FB11DA35ABF4F2C91848D90E040
:1002100001968F739927848FA689B7892C93A0891B
:10022000B1898C9180648C93938D848D981306C0D2
:100230000288F389E02D80818F7D80830895EF927D
:10024000FF920F931F93CF93DF93EC0181E0888F90
:100250009B8D8C8D981305C0E889F989808185FD77
:1002600024C0F62E0B8D10E00F5F1F4F0F73112768
:10027000E02E8C8DE8120CC00FB607FCFACFE8898F
:10028000F989808185FFF5CFCE010E94FE00F1CF74
:100290008B8DFE01E80FF11DE35AFF4FF0820B8FAB
:1002A000EA89FB898081806207C0EE89FF896083CB
:1002B000E889F98980818064808381E090E0DF9122
:1002C000CF911F910F91FF90EF900895CF93DF93FF
:1002D000EC01888D8823C9F0EA89FB89808185FD3E
:1002E00005C0A889B9898C9186FD0FC00FB607FC9F
:1002F000F5CF808185FFF2CFA889B9898C9185FFE0
:10030000EDCFCE010E94FE00E7CFDF91CF9108959F
:1003100080E090E0892B29F00E94F40081110C9478
:1003200000000895833081F028F4813099F0823004
:10033000A1F008958730A9F08830B9F08430D1F465
:10034000809180008F7D03C0809180008F778093A3
:100350008000089584B58F7702C084B58F7D84BDF9
:1003600008958091B0008F7703C08091B0008F7D99
:100370008093B00008953FB7F8948091BC019091AC
:10038000BD01A091BE01B091BF0126B5A89B05C0DB
:100390002F3F19F00196A11DB11D3FBFBA2FA92F04
:1003A000982F8827820F911DA11DB11DBC01CD0181
:1003B00042E0660F771F881F991F4A95D1F708956D
:1003C00085ED8093BC008091BC0084FDFCCF109231
:1003D0000802089540919101262F30E0240F311D2D
:1003E00021323105DCF4209108022430C9F4FC01EB
:1003F00080E090E0861758F4309191012191DC0162
:10040000A159BE4FA30FB11D2C930196F3CF80913C
:100410009101680F6093910180E0089581E0089553
:1004200082E008950895E091C1018091C001E8172C
:1004300030F4F0E0EE53FE4F808190E008958FEFAE
:100440009FEF08959091C1018091C001981750F4D9
:10045000E92FF0E0EE53FE4F208130E09F5F909354
:10046000C10102C02FEF3FEFC90108958091C00183
:1004700090E02091C101821B91090895CF92DF92F3
:10048000EF92FF920F931F93CF93DF937C01262F60
:10049000972F8A0180910902882391F0C62FD72FC8
:1004A0006E01C40ED51ECC15DD0571F06991D70122
:1004B000ED91FC910190F081E02DC7010995F3CFFA
:1004C000642F822F0E94EA01C801DF91CF911F9112
:1004D0000F91FF90EF90DF90CF900895CF93DF932F
:1004E0001F92CDB7DEB76983209109022223D1F094
:1004F00020912C02203240F021E030E0FC013383D7
:10050000228380E090E015C080910A02E82FF0E09D
:10051000E55FFD4F998190838F5F80930A028093FE
:100520002C0205C061E0CE0101960E94EA0181E043
:1005300090E00F90DF91CF910895089580E090E0D2
:100540000895CF92DF92FF920F931F93CF93DF9383
:100550001F92CDB7DEB78C01F62E6B018C2D8F1953
:10056000841770F4D6016D916D01D801ED91FC9165
:100570000484F585E02DC801498309954981EECFB2
:100580000F90DF91CF911F910F91FF90DF90CF904F
:100590000895CF93DF9300D0CDB7DEB76C3519F453
:1005A000698325EC05C06B3131F42CE5298321EBFF
:1005B0002A8362E002C0698361E0DC011496ED9158
:1005C000FC911597CE01019609950F900F90DF9140
:1005D000CF910895FC0185890895FC0181E024896B
:1005E0009389291301C080E00895FC0184899389CF
:1005F000891719F095899150958B208931898F5FE2
:10060000848B9289891708F0148A8489F901E80F8C
:10061000F11D80810895CF93DF93FC016115710571
:10062000C1F0262FDB018A2F821B9489338993170F
:1006300089F0841778F4C089D1899F5F948B82896F
:10064000981708F0148A8489C80FD11D88818D936A
:10065000EACF80E0DF91CF910895FC0185819281FE
:10066000891710F48F5F8583A081B18183818F5FAB
:10067000891710F4838301C013828381A80FB11DF1
:100680006C938581089540960C942D030F931F93CE
:10069000CF93DF93162F082FEC018C2F801B81172F
:1006A00030F469918DE292E00E941F01F6CFDF9154
:1006B000CF911F910F910895FF920F931F93CF93A6
:1006C000DF93062FF82EEC011C2F1F19101760F472
:1006D0008DE292E00E94E800892B31F08DE292E0F9
:1006E0000E94C6008993F0CF812FDF91CF911F9197
:1006F0000F91FF9008950E941D141F920F920FB644
:100700000F9211242F933F934F935F936F937F9397
:100710008F939F93AF93BF93EF93FF938DE292E0FC
:100720000E94FE00FF91EF91BF91AF919F918F9139
:100730007F916F915F914F913F912F910F900FBEDD
:100740000F901F9018951F920F920FB60F921124C1
:100750002F938F939F93EF93FF93E0913D02F0913E
:100760003E028081E0914302F091440282FD12C07A
:100770009081809146028F5F8F732091470282178C
:1007800051F0E0914602F0E0E35DFD4F958F8093DC
:10079000460201C08081FF91EF919F918F912F912F
:1007A0000F900FBE0F901F901895CF93DF93282FB7
:1007B00030E0F901E859FF4F8491F901EA57FF4F02
:1007C000D491F901E656FF4FC491CC2391F08111E9
:1007D0000E949201EC2FF0E0EE0FFF1FE854FF4F54
:1007E000A591B491EC91ED2381E090E021F480E0BB
:1007F00002C080E090E0DF91CF9108951F93CF93E6
:10080000DF93282F30E0F901E859FF4F8491F90177
:10081000EA57FF4FD491F901E656FF4FC491CC231C
:10082000C9F0162F81110E949201EC2FF0E0EE0F1B
:10083000FF1FE255FF4FA591B4918FB7F8941111A6
:1008400005C09C91ED2FE095E92302C0EC91ED2BC2
:10085000EC938FBFDF91CF911F910895CF93DF93DA
:1008600090E0FC01EA57FF4F2491FC01E656FF4F50
:100870008491882361F190E0880F991FFC01E4586E
:10088000FF4FC591D491FC01E255FF4FA591B49162
:10089000611109C09FB7F8948881209582238883CD
:1008A000EC912E230BC0623061F49FB7F89438812D
:1008B000822F809583238883EC912E2B2C939FBFCE
:1008C00006C08FB7F894E8812E2B28838FBFDF9165
:1008D000CF9108958E3008F08E5087708064809399
:1008E0007C0080917A00806480937A0080917A0005
:1008F00086FDFCCF809178002091790090E0922BCA
:1009000008958F929F92AF92BF92CF92DF92EF9213
:10091000FF926B017C010E94BB014B015C01C11481
:10092000D104E104F104F1F00E94BB01DC01CB0130
:1009300088199909AA09BB09883E9340A105B10508
:1009400070F321E0C21AD108E108F10888EE880EA0
:1009500083E0981EA11CB11CC114D104E104F10470
:1009600019F7DDCFFF90EF90DF90CF90BF90AF9061
:100970009F908F9008951F920F920FB60F9211249F
:100980002F933F938F939F93AF93BF938091B80121
:100990009091B901A091BA01B091BB013091B7011A
:1009A00023E0230F2D3720F40196A11DB11D05C0B2
:1009B00026E8230F0296A11DB11D2093B701809355
:1009C000B8019093B901A093BA01B093BB01809193
:1009D000BC019091BD01A091BE01B091BF010196F3
:1009E000A11DB11D8093BC019093BD01A093BE01D8
:1009F000B093BF01BF91AF919F918F913F912F9184
:100A00000F900FBE0F901F901895CF92DF92EF922C
:100A1000FF92CF93DF93EC01603282E078070CF015
:100A20003DC077FD06C0653B71052CF064EB70E0BE
:100A300002C060E070E0898128E830E06901C81AEE
:100A4000D10887FDD394CC0CDD1CCC0CDD1C0D2C07
:100A5000000CEE08FF088A8128E532E0281B3109E6
:100A600087FD3395220F331F220F331FC901330F28
:100A7000AA0BBB0B9C01AD012C193D094E095F0966
:100A8000DB010E94A01124EB30E040E050E00E9426
:100A90007611C20ED31EE41EF51EB60188818C307D
:100AA00080F5998148E850E0491B510997FD53951D
:100AB000440F551F440F551F6417750784F09A8122
:100AC00028E532E0291B310997FD3395220F331FAA
:100AD000220F331FAB01261737070CF4A901425030
:100AE0005109440F551F2FB7F89490E0FC01EE0F09
:100AF000FF1F8E0F9F1FFC01EA52FD4F528341835F
:100B00002FBFDF91CF91FF90EF90DF90CF900895AE
:100B10001F920F920FB60F9211242F933F934F9372
:100B20005F936F937F938F939F93AF93BF93EF9355
:100B3000FF938091B60187FF05C010928500109247
:100B400084001BC02091B601022E000C330B809153
:100B5000FA0290E02817390784F48091B601082E34
:100B6000000C990BFC01EE0FFF1F8E0F9F1FFC0165
:100B7000EA52FD4F808186FD15C08091B6018F5FDE
:100B80008093B6012091B601022E000C330B8091A8
:100B9000FA0290E028173907C4F48091B6018C302E
:100BA00064F113C08091B601082E000C990BFC0172
:100BB000EE0FFF1F8E0F9F1FFC01EA52FD4F808139
:100BC00060E08F730E94FE03D8CF809184009091E3
:100BD0008500049680349C4918F480E49CE905C0A3
:100BE0008091840090918500049690938900809371
:100BF00088008FEF8093B6013BC020918400309134
:100C000085008091B601082E000C990BFC01EE0FB7
:100C1000FF1F8E0F9F1FFC01EA52FD4F81819281C1
:100C2000820F931F90938900809388008091B60172
:100C3000082E000C990BFC01EE0FFF1F8E0F9F1F5B
:100C4000FC01EA52FD4F808186FF12C08091B601FF
:100C5000082E000C990BFC01EE0FFF1F8E0F9F1F3B
:100C6000FC01EA52FD4F808161E08F730E94FE0318
:100C7000FF91EF91BF91AF919F918F917F916F9174
:100C80005F914F913F912F910F900FBE0F901F904A
:100C900018959FB7F89480916C01882319F08150C2
:100CA00080936C0180916C01811105C08CB58F7BA4
:100CB0008CBD10926E019FBF08951F920F920FB6C8
:100CC0000F9211242F933F934F935F936F937F93D2
:100CD0008F939F93AF93BF93EF93FF938091B9004E
:100CE000887F803609F49CC068F5883209F45BC0BF
:100CF00090F4803109F454C038F4882309F4F6C024
:100D0000883009F44DC0F6C0883109F44CC08032F7
:100D100009F45DC0EFC0803409F468C048F4803342
:100D200009F455C0883309F0E5C080930602D8C0A5
:100D3000803509F44FC0883509F45DC0883409F066
:100D4000D9C0D6C0883909F4C7C0A8F4883709F4D7
:100D500067C038F4883609F463C0803709F460C08E
:100D6000C9C0883809F4B8C0803909F45FC0803838
:100D700009F0C0C05BC0803B09F486C038F4803AFB
:100D800009F466C0883A09F47FC0B4C0803C09F415
:100D9000A7C0883C09F4A4C0883B09F48AC0AAC053
:100DA0008091E30110C09091050280910402981790
:100DB00070F5E091050281E08E0F80930502F0E06E
:100DC000EC51FE4F80818093BB0085EC86C0809300
:100DD00006028EC0E091050281E08E0F809305022D
:100DE0008091BB00F0E0EC51FE4F808390910502B2
:100DF000809104026EC0E091050281E08E0F809325
:100E000005028091BB00F0E0EC51FE4F80838091A1
:100E1000070281116DC081E08093E20184EA61C024
:100E200083E0809308021092B501CFCF8091B50185
:100E3000803208F051C0E091B50181E08E0F8093BF
:100E4000B5018091BB00F0E0EB56FE4F8083BDCF33
:100E500085EC8093BC00109208028091B50180322D
:100E600030F4E091B501F0E0EB56FE4F1082609156
:100E7000B50170E0E0919301F091940185E991E072
:100E800009951092B50136C084E080930802109253
:100E9000920110929101E0918F01F09190010995DA
:100EA00080919101811105C081E0809391011092A0
:100EB0006F01E091920181E08E0F80939201F0E04A
:100EC000E159FE4F80818093BB0090919201809107
:100ED0009101981708F479CF85E88093BC000AC087
:100EE00085EC8093BC001092080204C010920602A8
:100EF0000E94E001FF91EF91BF91AF919F918F917F
:100F00007F916F915F914F913F912F910F900FBE05
:100F10000F901F901895FC01138A148A158A168A5F
:100F20000680F781E02D309709F0099408958F929B
:100F30009F92AF92BF92CF92DF92EF92FF920F9368
:100F40001F93CF93DF931F92CDB7DEB78C01DC01E7
:100F50001296ED91FC91139761E0CE0101967C0110
:100F60000995982E6701580190E1A90EB11C8824BB
:100F700083948C2D8E198915F0F4D6016D916D0135
:100F8000F8018689882349F0168A613B21F0653C87
:100F900051F46CE50CC06BE10AC06B3121F06C358B
:100FA00031F4868AE6CFC8010E948B07E2CFC501E3
:100FB0000E942D03DECFD801ED91FC910680F781D0
:100FC000E02DC80109950F90DF91CF911F910F91EE
:100FD000FF90EF90DF90CF90BF90AF909F908F9059
:100FE000089580916E01882361F09FB7F894209155
:100FF0006E0180916D01213019F48DBB9FBF089562
:101000008FBF089510920703109206030E94F10704
:1010100081E00C940B08382F20912C0290912B0228
:10102000213208F049C0809108028111FCCF42E0D2
:1010300040930802309307023FEF3093060210926C
:10104000050220930402ABE0B2E044EE51E0FA0165
:101050003E2F341B321718F43D913193F9CF109283
:10106000E3012091E301990F922B9093E30190917A
:10107000E201913061F41092E2019091E3019093CA
:10108000BB009091BC0093FDF8CF95EC01C095EEAC
:101090009093BC00909108029230E1F39091060287
:1010A0009F3F79F080910602803241F080910602E4
:1010B000803331F084E005C081E003C082E001C0EC
:1010C00083E010920A0210922C02109209020895F5
:1010D0001F93CF93DF93182FC0918600D091870084
:1010E000D05920918600309187002C1B3D0B213078
:1010F0003048B8F7812F0E94D503019791F32091D2
:101100008600309187002C1B3D0B2130304838F091
:10111000812F0E94D503019791F780E001C08FEFE6
:10112000DF91CF911F9108950F931F93CF9320913B
:101130000303C09102038091010390910802911171
:10114000FCCFC13208F0C0E291E090930802292759
:10115000209307022FEF20930602109205022C0F16
:10116000209304029093E3019091E301880F892B6F
:101170008093E3018091E201813061F41092E201F9
:101180008091E3018093BB008091BC0083FDF8CF88
:1011900085EC01C085EE8093BC008091080281300F
:1011A000E1F3809105028C1710F4C0910502A4EEC2
:1011B000B1E022EC31E0F9018E2F821B8C1718F47C
:1011C0008D918193F9CF1092C101C093C00110920B
:1011D00003038091FD029091FE02DC01ED91FC91F0
:1011E0000484F585E02D6C2F0995CC23B1F0E091B6
:1011F000FD02F091FE020190F081E02D048515853D
:101200008AEC92E00E942202682F8091FD02909168
:10121000FE02F8010995C150E8CF1092FF02CF916C
:101220001F910F910895CF93DF93CDB7DEB76C97E1
:101230000FB6F894DEBF0FBECDBF789484B5826040
:1012400084BD84B5816084BD85B5826085BD85B56A
:10125000816085BD80916E00816080936E001092E8
:101260008100809181008260809381008091810063
:1012700081608093810080918000816080938000F4
:101280008091B10084608093B1008091B000816052
:101290008093B00080917A00846080937A0080917E
:1012A0007A00826080937A0080917A0081608093D6
:1012B0007A0080917A00806880937A001092C10051
:1012C000E0913D02F0913E0282E08083E09139029C
:1012D000F0913A021082E0913B02F0913C0288E0EA
:1012E000808310924502E0914102F091420286E033
:1012F0008083E0913F02F091400280818061808391
:10130000E0913F02F0914002808188608083E0910B
:101310003F02F0914002808180688083E0913F022B
:10132000F091400280818F7D808361E082E10E94A4
:101330002E0461E082E10E94FE0361E083E10E94ED
:101340002E0461E083E10E94FE031092C10110921D
:10135000C00110920A0210922C021092080281E041
:10136000809307021092E20161E082E10E94FE0395
:1013700061E083E10E94FE038091B9008E7F80933B
:10138000B9008091B9008D7F8093B90088E4809383
:10139000B80085E48093BC008CE08093B80061E0E5
:1013A0008AE00E942E0461E08AE00E94FE0382E04F
:1013B00098E090930F0380930E0388E093E00E94DF
:1013C0008B0702E08091FB029091FC02DC01ED9121
:1013D000FC910280F381E02D0995882309F49DC6D4
:1013E00080910603909107038334910509F4E1C3CA
:1013F000BCF48333910509F43FC534F4009771F1CF
:10140000C29709F41CC470C68F33910509F44AC60B
:101410008134910509F448C1C49709F065C665C5D2
:101420008F34910509F456C064F48634910509F4AB
:1014300075C38934910531F18434910509F054C69E
:1014400070C08335910509F4E4C18337910509F42F
:101450001CC28035910509F047C65BC18091FB0233
:101460009091FC02DC01ED91FC910480F581E02D6E
:10147000099590E09093070380930603CF9709F0B6
:101480003CC610C68091FB029091FC02DC01ED91FC
:10149000FC910084F185E02D0995882309F42DC67F
:1014A0008091FB029091FC02DC01ED91FC910480A3
:1014B000F581E02D09950E94D503A091FB02B09122
:1014C000FC02ED91FC9111970484F585E02D682FC5
:1014D000CD01E2C58091FB029091FC02DC01ED910F
:1014E000FC910084F185E02D0995823008F405C651
:1014F0008091FB029091FC02DC01ED91FC91048053
:10150000F581E02D0995182F8091FB029091FC0246
:10151000DC01ED91FC910480F581E02D0995682FA7
:1015200074C18091FB029091FC02DC01ED91FC9171
:101530000084F185E02D0995823008F4DEC58091A4
:10154000FB029091FC02DC01ED91FC910480F5819D
:10155000E02D0995182F8091FB029091FC02DC018F
:10156000ED91FC910480F581E02D0995E090040354
:10157000F0900503813031F018F0823031F0C2C2B2
:1015800061E001C060E0812F8CC01C3008F06BC0AE
:1015900061E0812F0E942E04C12ED12C5701B3E0AF
:1015A0001B9FA00CB11C1124F50183818C3008F025
:1015B000A9C261E0812F0E942E04D50113968C915F
:1015C000282F30E0A901440F551F240F351FF901C2
:1015D000EA52FD4F1F739081907C192B1083960166
:1015E000220F331FC20ED31EF701EC0DFD1D148216
:1015F00015826CE00E940B14BCE08B9FB00111249B
:1016000040E050E09A01260F371FF901EE0FFF1F4F
:10161000E20FF31FEA52FD4F908196FD15C04F5F18
:101620005F4F4C30510571F781110EC01092800050
:10163000009381001092850010928400B19A8091ED
:101640006F00826080936F00D5011396EC91F0E0FB
:10165000CF01880F991FE80FF91FEA52FD4F8081D3
:10166000806480834FC28CE9810F8C3008F04AC2BD
:10167000282F30E0A901440F551F240F351FF70113
:10168000E20FF31FE381F0E09F01220F331FE20F0F
:10169000F31FEA52FD4F908196FF34C29F7B9083E7
:1016A00061E00E942E042EC28091FB029091FC0208
:1016B000DC01ED91FC910084F185E02D09958823F2
:1016C00009F41BC58091FB029091FC02DC01ED91B5
:1016D000FC910480F581E02D09950E946A04192F80
:1016E000A091FB02B091FC02ED91FC911197048452
:1016F000F585E02D682FCD0109958091FB02909131
:10170000FC02DC01ED91FC910484F585E02D612F54
:10171000C3C48091FB029091FC02DC01ED91FC912D
:101720000084F185E02D0995823008F4E6C48091AB
:10173000FB029091FC02DC01ED91FC910480F581AB
:10174000E02D0995182F8091FB029091FC02DC019D
:10175000ED91FC910480F581E02D0995F82EC82EBD
:10176000D12C61E0812F0E942E04C114D10409F410
:1017700049C0BFEFCB16D10409F446C0E12FF0E019
:10178000E859FF4FE491E330F9F048F4E130B9F063
:10179000E230A1F584B5806284BDF8BCB3C1E73006
:1017A000E9F0E83019F1E43049F580918000806279
:1017B00080938000D0928B00C0928A00A3C184B530
:1017C000806884BDF7BC9EC1809180008068809352
:1017D0008000D0928900C092880094C18091B000AE
:1017E00080688093B000F092B3008CC18091B0000B
:1017F00080628093B000F092B40084C1E0E8CE161D
:10180000D10414F460E001C061E0812F0E94FE0366
:1018100079C18091FB029091FC02DC01ED91FC9179
:101820000084F185E02D0995823008F466C480912A
:10183000FB029091FC02DC01ED91FC910480F581AA
:10184000E02D0995182F8091FB029091FC02DC019C
:10185000ED91FC910480F581E02D09954091040300
:10186000509105031C3008F048C4682F70E04D5FAC
:101870005F4F212F30E0C901880F991F820F931FFE
:10188000840F951F0E9405053DC18091FB02909138
:10189000FC02DC01ED91FC910084F185E02D0995BD
:1018A000853008F42AC48091FB029091FC02DC018F
:1018B000ED91FC910480F581E02D0995182F809120
:1018C000FB029091FC02DC01ED91FC910480F5811A
:1018D000E02D09958A8F8091FB029091FC02DC013A
:1018E000ED91FC910480F581E02D09958B8F80911D
:1018F000FB029091FC02DC01ED91FC910480F581EA
:10190000E02D0995F82E8091FB029091FC02DC01FC
:10191000ED91FC910480F581E02D0995682F70E030
:1019200080E090E00E94EC1220E030E04AE754E4CE
:101930000E944B122B013C01BAE0FB9EB001112426
:101940002090040330900503EB8DFA8DFE1718F4F8
:10195000EF1BE98304C02A8D3B8D231B298380E084
:1019600090E00E94EC12A30192010E949E136D83ED
:101970007E838F83988720E030E040E05FE30E9421
:101980009E13A30192010E949E1369877A878B8719
:101990009C8720E030E04AE754E4C301B2010E9492
:1019A0009E130E94BD12812C912C5401750164017B
:1019B0009981892F90E0A0E0B0E08D879E87AF8766
:1019C000B88B9A8D892F90E0A0E0B0E0898B9A8B3C
:1019D000AB8BBC8BA1014D5F5F4F812F90E09C01D1
:1019E000220F331F820F931F1A01280E391E862FD4
:1019F00090E0A0E0B0E08D8B9E8BAF8BB88F6D85B3
:101A00007E858F8598890E94EE1269837A838B8305
:101A10009C8320E030E040E05FE30E94D9119B010D
:101A2000AC01C701B6010E94461287FF6BC020E0DF
:101A300030E040E05FE369817A818B819C810E9484
:101A40009E139B01AC01C701B6010E944612A3017F
:101A5000920187FF1BC0C501B4010E949E13298516
:101A60003A854B855C850E94DA119B01AC01C70168
:101A7000B6010E94DA116B017C012D813E814F81FC
:101A80005885C501B4010E94DA111AC0C501B4011C
:101A90000E949E1329853A854B855C850E94D91149
:101AA0009B01AC01C701B6010E94DA116B017C01F8
:101AB0002D813E814F815885C501B4010E94D91105
:101AC0004B015C0169897A898B899C890E94EE129D
:101AD000AA8DBB8DA7019601BA1718F00E94DA11E2
:101AE00002C00E94D9110E94BD121C3020F470E087
:101AF000C1010E9405056D897E898F89988D0E949C
:101B000081047DCF8091FB029091FC02DC01ED917C
:101B1000FC910484F585E02D6FEFBEC28091FB023D
:101B20009091FC02DC01ED91FC910084F185E02DA7
:101B30000995882309F4E1C28091FB029091FC028F
:101B4000DC01ED91FC910480F581E02D0995182FC1
:101B50000E946808882319F06FEF7FEF10C0E090B3
:101B60008600F0908700812F0E9468088111F4CFD1
:101B70008091860090918700BC016E197F09809149
:101B8000FB029091FC02DC01ED91FC910484F5854F
:101B9000E02D698F7C8F09958091FB029091FC026A
:101BA000DC01ED91FC910484F585E02D7C8D672F9F
:101BB00073C28091FB029091FC02DC01ED91FC91DB
:101BC0000084F185E02D0995833008F496C2809158
:101BD000FB029091FC02DC01ED91FC910480F58107
:101BE000E02D0995F82E8091FB029091FC02DC011A
:101BF000ED91FC910480F581E02D0995E82E80910E
:101C0000FB029091FC02DC01ED91FC910480F581D6
:101C1000E02D0995182F61E08F2D0E94FE031123FE
:101C200049F08E2D0E946A04EBEEF5E03197F1F752
:101C30001150F5CF60E08F2D0E94FE032EC28091DF
:101C4000FB029091FC02DC01ED91FC910084F18596
:101C5000E02D0995882309F450C28091FB029091F0
:101C6000FC02DC01ED91FC910480F581E02D0995E9
:101C7000182F8091FF02833009F484C040F4882338
:101C800069F0823009F039C21093010386C08430B4
:101C900009F486C0853009F4ABC02FC2133509F4AE
:101CA00065C0E8F41634F1F190F41134B1F1153453
:101CB00009F023C28091FD029091FE02DC01ED91BA
:101CC000FC910484F585E02D609100030CC11C3467
:101CD00039F1123509F011C21092030337C01C36D6
:101CE000C1F190F4173501F1113609F006C2809167
:101CF000FD029091FE02DC01ED91FC910484F585DA
:101D0000E02D60910103EFC01237E9F0173709F0B9
:101D1000F4C181E08093030307C00093FF02EDC18B
:101D200083E00EC084E00CC08091010391E09093A9
:101D3000090280932B0210920A0210922C0285E075
:101D40008093FF02DAC181E0809303030E9494082C
:101D5000D4C18091FD029091FE02DC01ED91FC91D5
:101D60000484F585E02D60910203BDC08091FD02E1
:101D70009091FE02DC01ED91FC910484F585E02D4B
:101D800060E0B1C0113238F081E08093FF02BCE422
:101D9000B0930003B2C1109302031092FF02ADC1D1
:101DA000212F30E0A0E1B7E20E94CA119B01AC01F3
:101DB00060E074E284EF90E00E94A811DA01C901AA
:101DC0004097A109B109B695A795979587958093F6
:101DD000B8008091FD029091FE02DC01ED91FC9132
:101DE0000484F585E02D612F09951092FF0255C1FD
:101DF000809102038823F1F0612F8AEC92E00E9427
:101E00006E02892B91F481E08093FF0287E5809335
:101E100000038091FD029091FE02DC01ED91FC91A6
:101E20000484F585E02D67E537C180910203815078
:101E3000809302038091020381115FC11092FF021F
:101E40008091030311E081270E940B08882329F069
:101E50001093FF02B3E5B093000310920303809147
:101E6000FD029091FE02DC01ED91FC910484F58568
:101E7000E02D6091000310C18091FB029091FC0263
:101E8000DC01ED91FC910084F185E02D099588231A
:101E900009F433C18091FB029091FC02DC01ED91C9
:101EA000FC910480F581E02D0995E091FB02F09111
:101EB000FC020190F081E02D0484F585E02DA091D5
:101EC0000403B091050399969C91953038F48EBD2A
:101ED00000000DB407FEFDCF6EB501C060E080913B
:101EE000FB029091FC02099508C18091FB02909140
:101EF000FC02DC01ED91FC910084F185E02D099557
:101F0000833008F4FAC08091FB029091FC02DC015E
:101F1000ED91FC910480F581E02D0995C82E80910A
:101F2000FB029091FC02DC01ED91FC910480F581B3
:101F3000E02D0995D82E8091FB029091FC02DC01E6
:101F4000ED91FC910480F581E02D0995182FE09129
:101F5000FB02F091FC020190F081E02DE484F58415
:101F600060900403709005030E94F1070E944906E7
:101F7000B4E0BC1520F48FEFF30181A786C0D30134
:101F80009996CC92CFB6F89480916C01811127C0BC
:101F9000E4EAF0E09491E0E9F0E08491E92FF0E0E8
:101FA000EE0FFF1FE458FF4FA591B4919C91892338
:101FB00021F461E08AE00E94FE0361E08AE00E9471
:101FC0002E048CB580618CBD8CB580648CBD61E0C5
:101FD0008DE00E942E0461E08BE00E942E0480912F
:101FE0006C018F5F80936C01CFBED3019996EC9109
:101FF000F0E0E959FE4FE081212F30E0322F222717
:10200000C901A0E0B0E09C01AD012D0D311D411DC5
:10201000511DA4E6B0E00E94951120E0812C52E110
:10202000952E5AE7A52EB12CB694A7949794879431
:102030002F5F263031F0681579058A059B0510F46D
:10204000F3CF27E081E08227EC70E065982F96952A
:10205000E92B817090916E01992379F09FB7F894E4
:1020600020916E01213039F42DB320936D012DB3F1
:102070002DBB9FBF02C090936D01ECBD8DBD6FE085
:1020800070E080E090E00E948104F30161A58091FE
:10209000FB029091FC02F701099510920703109240
:1020A00006032BC0E0910403F09105034081E18019
:1020B000F2808091FB029091FC02DC01ED91FC9199
:1020C0000484F585E02D642F498F09958091FB02EA
:1020D0009091FC02DC01ED91FC910684F785E02DE6
:1020E000498DB7010995D9CF1092070310920603C5
:1020F0000E94F10781E00E940B08809100038E345A
:1021000061F08091FB029091FC02DC01ED91FC9169
:102110000484F585E02D6BE109950E94880152C980
:102120001092300210922F0288EE93E0A0E0B0E00F
:102130008093310290933202A0933302B093340221
:102140002FE131E030932E0220932D0225EC30E078
:1021500030933A022093390224EC30E030933C0271
:1021600020933B0220EC30E030933E0220933D026E
:1021700021EC30E03093400220933F0222EC30E02B
:10218000309342022093410226EC30E03093440227
:102190002093430210924602109247021092480286
:1021A000109249021092CD021092CC028093CE027E
:1021B0009093CF02A093D002B093D10281E391E03B
:1021C0009093CB028093CA0280E091E09093210328
:1021D000809320038091FA02A2E2B3E09FEF48EBE4
:1021E0005BE08C3078F48C93282F30E0F901EE0F0F
:1021F000FF1F2E0F3F1FF901EA52FD4F528341830B
:102200008F5F01C09C93139623E0A634B20749F771
:102210008093FA020E94F1070E9449068FEF809393
:102220004803E0912003F091210380E091919923EC
:1022300021F0803211F08F5FF9CF80931F030E944D
:10224000F1070E9449068FEF8093480387E591E0EC
:1022500090930903809308038CE593E090930B031C
:1022600080930A0386E493E090930D0380930C031C
:10227000E0910E03F0910F03309709F0099588E083
:1022800093E010920F0310920E0323E431E0309399
:1022900009032093080320E133E0309319032093CE
:1022A000180328E020931A0310921B0310921C03BA
:1022B00010921D0310921E039093FC028093FB0268
:1022C0009093FE028093FD021092FF028EE48093B1
:1022D0000003109203038FE193E090930503809332
:1022E000040310920703109206030895052E97FB2E
:1022F0001EF400940E948D1157FD07D00E94A81172
:1023000007FC03D04EF40C948D11509540953095F8
:1023100021953F4F4F4F5F4F089590958095709551
:1023200061957F4F8F4F9F4F08950E94CA11A59FBF
:10233000900DB49F900DA49F800D911D11240895C0
:10234000B7FF0C9495110E949511821B930B089571
:10235000A1E21A2EAA1BBB1BFD010DC0AA1FBB1FA9
:10236000EE1FFF1FA217B307E407F50720F0A21B1B
:10237000B30BE40BF50B661F771F881F991F1A9488
:1023800069F760957095809590959B01AC01BD01B2
:10239000CF010895A29FB001B39FC001A39F700D0C
:1023A000811D1124911DB29F700D811D1124911D5D
:1023B00008955058BB27AA270E94F1110C9464136A
:1023C0000E94561338F00E945D1320F039F49F3FAD
:1023D00019F426F40C9453130EF4E095E7FB0C94D7
:1023E0004D13E92F0E94751358F3BA17620773074C
:1023F0008407950720F079F4A6F50C9497130EF452
:10240000E0950B2EBA2FA02D0B01B90190010C0104
:10241000CA01A0011124FF27591B99F0593F50F41C
:10242000503E68F11A16F040A22F232F342F442774
:10243000585FF3CF469537952795A795F04053956C
:10244000C9F77EF41F16BA0B620B730B840BBAF03C
:102450009150A1F0FF0FBB1F661F771F881FC2F7A7
:102460000EC0BA0F621F731F841F48F487957795BB
:102470006795B795F7959E3F08F0B0CF9395880F75
:1024800008F09927EE0F9795879508950E942913D4
:1024900008F481E008950E945F120C9464130E9476
:1024A0005D1358F00E94561340F029F45F3F29F065
:1024B0000C944D1351110C9498130C9453130E94C7
:1024C000751368F39923B1F3552391F3951B550BBD
:1024D000BB27AA2762177307840738F09F5F5F4FF7
:1024E000220F331F441FAA1FA9F335D00E2E3AF036
:1024F000E0E832D091505040E695001CCAF72BD04E
:10250000FE2F29D0660F771F881FBB1F261737079E
:102510004807AB07B0E809F0BB0B802DBF01FF27D0
:1025200093585F4F3AF09E3F510578F00C944D134D
:102530000C9498135F3FE4F3983ED4F38695779517
:102540006795B795F7959F5FC9F7880F911D969589
:10255000879597F90895E1E0660F771F881FBB1FE5
:10256000621773078407BA0720F0621B730B840B92
:10257000BA0BEE1F88F7E09508950E947D1388F04E
:102580009F5798F0B92F9927B751B0F0E1F0660F37
:10259000771F881F991F1AF0BA95C9F714C0B13078
:1025A00091F00E949713B1E008950C949713672F50
:1025B000782F8827B85F39F0B93FCCF386957795A7
:1025C0006795B395D9F73EF4909580957095619590
:1025D0007F4F8F4F9F4F0895E89409C097FB3EF4BB
:1025E00090958095709561957F4F8F4F9F4F992360
:1025F000A9F0F92F96E9BB279395F69587957795DE
:102600006795B795F111F8CFFAF4BB0F11F460FF9D
:102610001BC06F5F7F4F8F4F9F4F16C0882311F0F5
:1026200096E911C0772321F09EE8872F762F05C009
:10263000662371F096E8862F70E060E02AF09A95A4
:10264000660F771F881FDAF7880F9695879597F999
:102650000895990F0008550FAA0BE0E8FEEF161633
:102660001706E807F907C0F012161306E407F50786
:1026700098F0621B730B840B950B39F40A2661F0FA
:10268000232B242B252B21F408950A2609F4A1409D
:10269000A6958FEF811D811D089597F99F6780E8AA
:1026A00070E060E008959FEF80EC089500240A94A4
:1026B0001616170618060906089500240A9412161D
:1026C0001306140605060895092E0394000C11F450
:1026D000882352F0BB0F40F4BF2B11F460FF04C0FD
:1026E0006F5F7F4F8F4F9F4F089557FD9058440F56
:1026F000551F59F05F3F71F04795880F97FB991F61
:1027000061F09F3F79F0879508951216130614061D
:10271000551FF2CF4695F1DF08C0161617061806AA
:10272000991FF1CF86957105610508940895E89485
:10273000BB2766277727CB0197F908950E94B1132D
:102740000C9464130E94561338F00E945D1320F01D
:10275000952311F00C944D130C94531311240C94E5
:1027600098130E94751370F3959FC1F3950F50E075
:10277000551F629FF001729FBB27F00DB11D639F33
:10278000AA27F00DB11DAA1F649F6627B00DA11DD9
:10279000661F829F2227B00DA11D621F739FB00D7F
:1027A000A11D621F839FA00D611D221F749F3327EF
:1027B000A00D611D231F849F600D211D822F762F88
:1027C0006A2F11249F5750409AF0F1F088234AF065
:1027D000EE0FFF1FBB1F661F771F881F91505040D1
:1027E000A9F79E3F510580F00C944D130C9498135B
:1027F0005F3FE4F3983ED4F3869577956795B79558
:10280000F795E7959F5FC1F7FE2B880F911D969571
:10281000879597F90895991B79E004C0991F961739
:1028200008F0961B881F7A95C9F780950895EE0FDA
:10283000FF1F0590F491E02D099481E090E0F89459
:082840000C942214F894FFCF60
:1028480047534F462041726475696E6F20494F2D7A
:1028580042726964676520322E3000000000001F54
:10286800018C00B7006601E800C600DA000000002D
:10287800006E023E029E021202360222021302007B
:1028880000000043039707F502ED02EA020B03C9B3
:1028980002A102000000007B037B037B037B037B18
:0C28A800037B037B037B030004080CFF90
:00000001FF
