:100000000C9462000C948A000C948A000C948A0070
:100010000C948A000C948A000C948A000C948A0038
:100020000C948A000C948A000C948A000C94880525
:100030000C948A000C948A000C948A000C948A0018
:100040000C94BB040C948A000C94A3030C947D03C1
:100050000C948A000C948A000C948A000C948A00F8
:100060000C945D060C948A00000000080002010058
:100070000003040700000000000000000000000072
:10008000240027002A0001020408102040800102F9
:1000900004081020010204081020040404040404CD
:1000A000040402020202020203030303030300002A
:1000B0000000250028002B0000000000230026007F
:1000C0002900381211241FBECFEFD8E0DEBFCDBF0C
:1000D00011E0A0E0B1E0E0ECFBE202C005900D927F
:1000E000A837B107D9F723E0A8E7B1E001C01D9216
:1000F000AD35B207E1F710E0C2E6D0E004C02197C9
:10010000FE010E94D315C136D107C9F70E944C09E0
:100110000C94DE150C940000CF92DF92EF92FF92C8
:100120000F931F93CF93DF936C017A018B01C0E093
:10013000D0E0CE15DF0589F0D8016D918D01D60193
:10014000ED91FC910190F081E02DC6010995892B7C
:1001500011F47E0102C02196ECCFC701DF91CF914F
:100160001F910F91FF90EF90DF90CF900895FC01C9
:10017000538D448D252F30E0842F90E0821B930B0C
:10018000541710F0CF96089501970895FC01918DB2
:10019000828D981761F0828DDF01A80FB11D5D96E9
:1001A0008C91928D9F5F9F73928F90E008958FEF57
:1001B0009FEF0895FC01918D828D981731F0828D0B
:1001C000E80FF11D858D90E008958FEF9FEF089562
:1001D000FC01918D228D892F90E0805C9F4F821BC6
:1001E00091098F739927089589E392E00E94E800AE
:1001F00021E0892B09F420E0822F0895FC01848DF1
:10020000DF01A80FB11DA35ABF4F2C91848D90E040
:1002100001968F739927848FA689B7892C93A0891B
:10022000B1898C9180648C93938D848D981306C0D2
:100230000288F389E02D80818F7D80830895EF927D
:10024000FF920F931F93CF93DF93EC0181E0888F90
:100250009B8D8C8D981305C0E889F989808185FD77
:1002600024C0F62E0B8D10E00F5F1F4F0F73112768
:10027000E02E8C8DE8120CC00FB607FCFACFE8898F
:10028000F989808185FFF5CFCE010E94FE00F1CF74
:100290008B8DFE01E80FF11DE35AFF4FF0820B8FAB
:1002A000EA89FB898081806207C0EE89FF896083CB
:1002B000E889F98980818064808381E090E0DF9122
:1002C000CF911F910F91FF90EF900895CF93DF93FF
:1002D000EC01888D8823C9F0EA89FB89808185FD3E
:1002E00005C0A889B9898C9186FD0FC00FB607FC9F
:1002F000F5CF808185FFF2CFA889B9898C9185FFE0
:10030000EDCFCE010E94FE00E7CFDF91CF9108959F
:1003100080E090E0892B29F00E94F40081110C9478
:1003200000000895833081F028F4813099F0823004
:10033000A1F008958730A9F08830B9F08430D1F465
:10034000809180008F7D03C0809180008F778093A3
:100350008000089584B58F7702C084B58F7D84BDF9
:1003600008958091B0008F7703C08091B0008F7D99
:100370008093B00008953FB7F8948091C8019091A0
:10038000C901A091CA01B091CB0126B5A89B05C0B7
:100390002F3F19F00196A11DB11D3FBFBA2FA92F04
:1003A000982F8827820F911DA11DB11DBC01CD0181
:1003B00042E0660F771F881F991F4A95D1F708956D
:1003C00085ED8093BC008091BC0084FDFCCF109231
:1003D0001402089540919D01262F30E0240F311D15
:1003E00021323105DCF4209114022430C9F4FC01DF
:1003F00080E090E0861758F430919D012191DC0156
:10040000A558BE4FA30FB11D2C930196F3CF809139
:100410009D01680F60939D0180E0089581E008953B
:1004200082E008950895E091CD018091CC01E81714
:1004300030F4F0E0E253FE4F808190E008958FEFBA
:100440009FEF08959091CD018091CC01981750F4C1
:10045000E92FF0E0E253FE4F208130E09F5F909360
:10046000CD0102C02FEF3FEFC90108958091CC016B
:1004700090E02091CD01821B91090895CF92DF92E7
:10048000EF92FF920F931F93CF93DF937C01262F60
:10049000972F8A0180911502882391F0C62FD72FBC
:1004A0006E01C40ED51ECC15DD0571F06991D70122
:1004B000ED91FC910190F081E02DC7010995F3CFFA
:1004C000642F822F0E94EA01C801DF91CF911F9112
:1004D0000F91FF90EF90DF90CF900895CF93DF932F
:1004E0001F92CDB7DEB76983209115022223D1F088
:1004F00020913802203240F021E030E0FC013383CB
:10050000228380E090E015C080911602E82FF0E091
:10051000E95EFD4F998190838F5F809316028093EF
:10052000380205C061E0CE0101960E94EA0181E037
:1005300090E00F90DF91CF910895089580E090E0D2
:100540000895CF92DF92FF920F931F93CF93DF9383
:100550001F92CDB7DEB78C01F62E6B018C2D8F1953
:10056000841770F4D6016D916D01D801ED91FC9165
:100570000484F585E02DC801498309954981EECFB2
:100580000F90DF91CF911F910F91FF90DF90CF904F
:100590000895CF93DF9300D0CDB7DEB76C3519F453
:1005A000698325EC05C06B3131F42CE5298321EBFF
:1005B0002A8362E002C0698361E0DC011496ED9158
:1005C000FC911597CE01019609950F900F90DF9140
:1005D000CF910895FC0185890895FC0181E024896B
:1005E0009389291301C080E00895FC0184899389CF
:1005F000891719F095899150958B208931898F5FE2
:10060000848B9289891708F0148A8489F901E80F8C
:10061000F11D80810895CF93DF93FC016115710571
:10062000C1F0262FDB018A2F821B9489338993170F
:1006300089F0841778F4C089D1899F5F948B82896F
:10064000981708F0148A8489C80FD11D88818D936A
:10065000EACF80E0DF91CF910895FC0185819281FE
:10066000891710F48F5F8583A081B18183818F5FAB
:10067000891710F4838301C013828381A80FB11DF1
:100680006C938581089540960C942D030F931F93CE
:10069000CF93DF93162F082FEC018C2F801B81172F
:1006A00030F4699189E392E00E941F01F6CFDF9157
:1006B000CF911F910F910895FF920F931F93CF93A6
:1006C000DF93062FF82EEC011C2F1F19101760F472
:1006D00089E392E00E94E800892B31F089E392E0FF
:1006E0000E94C6008993F0CF812FDF91CF911F9197
:1006F0000F91FF9008950E94D9151F920F920FB687
:100700000F9211242F933F934F935F936F937F9397
:100710008F939F93AF93BF93EF93FF9389E392E0FF
:100720000E94FE00FF91EF91BF91AF919F918F9139
:100730007F916F915F914F913F912F910F900FBEDD
:100740000F901F9018951F920F920FB60F921124C1
:100750002F938F939F93EF93FF93E0914902F09132
:100760004A028081E0914F02F091500282FD12C056
:100770009081809152028F5F8F7320915302821774
:1007800051F0E0915202F0E0E75CFD4F958F8093CD
:10079000520201C08081FF91EF919F918F912F9123
:1007A0000F900FBE0F901F901895CF93DF93282FB7
:1007B00030E0F901E859FF4F8491F901EA57FF4F02
:1007C000D491F901E656FF4FC491CC2391F08111E9
:1007D0000E949201EC2FF0E0EE0FFF1FE854FF4F54
:1007E000A591B491EC91ED2381E090E021F480E0BB
:1007F00002C080E090E0DF91CF9108951F93CF93E6
:10080000DF93282F30E0F901E859FF4F8491F90177
:10081000EA57FF4FD491F901E656FF4FC491CC231C
:10082000C9F0162F81110E949201EC2FF0E0EE0F1B
:10083000FF1FE255FF4FA591B4918FB7F8941111A6
:1008400005C09C91ED2FE095E92302C0EC91ED2BC2
:10085000EC938FBFDF91CF911F910895CF93DF93DA
:1008600090E0FC01EA57FF4F2491FC01E656FF4F50
:100870008491882361F190E0880F991FFC01E4586E
:10088000FF4FC591D491FC01E255FF4FA591B49162
:10089000611109C09FB7F8948881209582238883CD
:1008A000EC912E230BC0623061F49FB7F89438812D
:1008B000822F809583238883EC912E2B2C939FBFCE
:1008C00006C08FB7F894E8812E2B28838FBFDF9165
:1008D000CF9108958E3008F08E5087708064809399
:1008E0007C0080917A00806480937A0080917A0005
:1008F00086FDFCCF809178002091790090E0922BCA
:1009000008958F929F92AF92BF92CF92DF92EF9213
:10091000FF926B017C010E94BB014B015C01C11481
:10092000D104E104F104F1F00E94BB01DC01CB0130
:1009300088199909AA09BB09883E9340A105B10508
:1009400070F321E0C21AD108E108F10888EE880EA0
:1009500083E0981EA11CB11CC114D104E104F10470
:1009600019F7DDCFFF90EF90DF90CF90BF90AF9061
:100970009F908F9008951F920F920FB60F9211249F
:100980002F933F938F939F93AF93BF938091C40115
:100990009091C501A091C601B091C7013091C301EA
:1009A00023E0230F2D3720F40196A11DB11D05C0B2
:1009B00026E8230F0296A11DB11D2093C301809349
:1009C000C4019093C501A093C601B093C701809163
:1009D000C8019091C901A091CA01B091CB010196C3
:1009E000A11DB11D8093C8019093C901A093CA01B4
:1009F000B093CB01BF91AF919F918F913F912F9178
:100A00000F900FBE0F901F901895CF92DF92EF922C
:100A1000FF92CF93DF93EC01603282E078070CF015
:100A20003DC077FD06C0653B71052CF064EB70E0BE
:100A300002C060E070E0898128E830E06901C81AEE
:100A4000D10887FDD394CC0CDD1CCC0CDD1C0D2C07
:100A5000000CEE08FF088A8128E532E0281B3109E6
:100A600087FD3395220F331F220F331FC901330F28
:100A7000AA0BBB0B9C01AD012C193D094E095F0966
:100A8000DB010E945C1324EB30E040E050E00E9468
:100A90003213C20ED31EE41EF51EB60188818C30BF
:100AA00080F5998148E850E0491B510997FD53951D
:100AB000440F551F440F551F6417750784F09A8122
:100AC00028E532E0291B310997FD3395220F331FAA
:100AD000220F331FAB01261737070CF4A901425030
:100AE0005109440F551F2FB7F89490E0FC01EE0F09
:100AF000FF1F8E0F9F1FFC01EE51FD4F528341835C
:100B00002FBFDF91CF91FF90EF90DF90CF900895AE
:100B10001F920F920FB60F9211242F933F934F9372
:100B20005F936F937F938F939F93AF93BF93EF9355
:100B3000FF938091C20187FF05C01092850010923B
:100B400084001BC02091C201022E000C330B809147
:100B5000060390E02817390784F48091C201082E1B
:100B6000000C990BFC01EE0FFF1F8E0F9F1FFC0165
:100B7000EE51FD4F808186FD15C08091C2018F5FCF
:100B80008093C2012091C201022E000C330B809190
:100B9000060390E028173907C4F48091C2018C3015
:100BA00064F113C08091C201082E000C990BFC0166
:100BB000EE0FFF1F8E0F9F1FFC01EE51FD4F808136
:100BC00060E08F730E94FE03D8CF809184009091E3
:100BD0008500049680349C4918F480E49CE905C0A3
:100BE0008091840090918500049690938900809371
:100BF00088008FEF8093C2013BC020918400309128
:100C000085008091C201082E000C990BFC01EE0FAB
:100C1000FF1F8E0F9F1FFC01EE51FD4F81819281BE
:100C2000820F931F90938900809388008091C20166
:100C3000082E000C990BFC01EE0FFF1F8E0F9F1F5B
:100C4000FC01EE51FD4F808186FF12C08091C201F0
:100C5000082E000C990BFC01EE0FFF1F8E0F9F1F3B
:100C6000FC01EE51FD4F808161E08F730E94FE0315
:100C7000FF91EF91BF91AF919F918F917F916F9174
:100C80005F914F913F912F910F900FBE0F901F904A
:100C900018959FB7F89480917801882319F08150B6
:100CA0008093780180917801811105C08CB58F7B8C
:100CB0008CBD10927A019FBF08951F920F920FB6BC
:100CC0000F9211242F933F934F935F936F937F93D2
:100CD0008F939F93AF93BF93EF93FF938091B9004E
:100CE000887F803609F49CC068F5883209F45BC0BF
:100CF00090F4803109F454C038F4882309F4F6C024
:100D0000883009F44DC0F6C0883109F44CC08032F7
:100D100009F45DC0EFC0803409F468C048F4803342
:100D200009F455C0883309F0E5C080931202D8C099
:100D3000803509F44FC0883509F45DC0883409F066
:100D4000D9C0D6C0883909F4C7C0A8F4883709F4D7
:100D500067C038F4883609F463C0803709F460C08E
:100D6000C9C0883809F4B8C0803909F45FC0803838
:100D700009F0C0C05BC0803B09F486C038F4803AFB
:100D800009F466C0883A09F47FC0B4C0803C09F415
:100D9000A7C0883C09F4A4C0883B09F48AC0AAC053
:100DA0008091EF0110C0909111028091100298176C
:100DB00070F5E091110281E08E0F80931102F0E056
:100DC000E051FE4F80818093BB0085EC86C080930C
:100DD00012028EC0E091110281E08E0F8093110209
:100DE0008091BB00F0E0E051FE4F808390911102B2
:100DF000809110026EC0E091110281E08E0F80930D
:100E000011028091BB00F0E0E051FE4F80838091A1
:100E1000130281116DC081E08093EE0184EA61C00C
:100E200083E0809314021092C101CFCF8091C10161
:100E3000803208F051C0E091C10181E08E0F8093B3
:100E4000C1018091BB00F0E0EF55FE4F8083BDCF24
:100E500085EC8093BC00109214028091C101803215
:100E600030F4E091C101F0E0EF55FE4F1082609147
:100E7000C10170E0E0919F01F091A00181EA91E051
:100E800009951092C10136C084E08093140210923B
:100E90009E0110929D01E0919B01F0919C010995AA
:100EA00080919D01811105C081E080939D01109288
:100EB0007B01E0919E0181E08E0F80939E01F0E026
:100EC000E558FE4F80818093BB0090919E018091F8
:100ED0009D01981708F479CF85E88093BC000AC07B
:100EE00085EC8093BC001092140204C01092120290
:100EF0000E94E001FF91EF91BF91AF919F918F917F
:100F00007F916F915F914F913F912F910F900FBE05
:100F10000F901F901895CF93FC013281C3810190EF
:100F2000F081E02DF894DB01AB014D5F5F4F8D91B7
:100F300099E09150D9F0282F220F87FD09C08081B8
:100F4000832B8083000080818C238083822FF1CFCC
:100F50008081832B808300000000000000000000DF
:100F60000000822F20812C232083E3CFA417B50714
:100F7000F1F67894CF910895FC01138A148A158AAA
:100F8000168A0680F781E02D309709F009940895BC
:100F90008F929F92AF92BF92CF92DF92EF92FF9289
:100FA0000F931F93CF93DF931F92CDB7DEB78C01C2
:100FB000DC011296ED91FC91139761E0CE01019650
:100FC0007C010995982E6701580190E1A90EB11C8A
:100FD000882483948C2D8E198915F0F4D6016D9197
:100FE0006D01F8018689882349F0168A613B21F05A
:100FF000653C51F46CE50CC06BE10AC06B3121F02B
:101000006C3531F4868AE6CFC8010E94BC07E2CF76
:10101000C5010E942D03DECFD801ED91FC91068021
:10102000F781E02DC80109950F90DF91CF911F91B5
:101030000F91FF90EF90DF90CF90BF90AF909F9077
:101040008F90089587FF03C061E08F7701C060E053
:101050000C94FE0380917A01882361F09FB7F89485
:1010600020917A0180917901213019F48DBB9FBFC5
:1010700008958FBF089510921303109212030E94D7
:101080002A0881E00C944408382F2091380290916E
:101090003702213208F049C0809114028111FCCF3F
:1010A00042E040931402309313023FEF3093120258
:1010B0001092110220931002A7E1B2E040EF51E03C
:1010C000FA013E2F341B321718F43D913193F9CFBA
:1010D0001092EF012091EF01990F922B9093EF0165
:1010E0009091EE01913061F41092EE019091EF0138
:1010F0009093BB009091BC0093FDF8CF95EC01C09C
:1011000095EE9093BC00909114029230E1F390918F
:1011100012029F3F79F080911202803241F080915B
:101120001202803331F084E005C081E003C082E028
:1011300001C083E01092160210923802109215023C
:1011400008951F93CF93DF93182FC0918600D091FD
:101150008700D05920918600309187002C1B3D0BD1
:1011600021303048B8F7812F0E94D503019791F3C1
:1011700020918600309187002C1B3D0B2130304898
:1011800038F0812F0E94D503019791F780E001C0CC
:101190008FEFDF91CF911F9108950F931F93CF93FE
:1011A00020910F03C0910E0380910D0390911402C2
:1011B0009111FCCFC13208F0C0E291E0909314028B
:1011C0002927209313022FEF20931202109211026D
:1011D0002C0F209310029093EF019091EF01880F54
:1011E000892B8093EF018091EE01813061F41092A0
:1011F000EE018091EF018093BB008091BC0083FDE4
:10120000F8CF85EC01C085EE8093BC00809114027C
:101210008130E1F3809111028C1710F4C09111021A
:10122000A0EFB1E02EEC31E0F9018E2F821B8C177C
:1012300018F48D918193F9CF1092CD01C093CC0118
:1012400010920F038091090390910A03DC01ED9144
:10125000FC910484F585E02D6C2F0995CC23B1F029
:10126000E0910903F0910A030190F081E02D0485DB
:10127000158586ED92E00E942202682F8091090375
:1012800090910A03F8010995C150E8CF10920B0321
:10129000CF911F910F910895CF93DF93CDB7DEB714
:1012A0006F970FB6F894DEBF0FBECDBF789484B5AC
:1012B000826084BD84B5816084BD85B5826085BD52
:1012C00085B5816085BD80916E00816080936E00E0
:1012D00010928100809181008260809381008091D2
:1012E0008100816080938100809180008160809383
:1012F00080008091B10084608093B1008091B00043
:1013000081608093B00080917A00846080937A003D
:1013100080917A00826080937A0080917A00816067
:1013200080937A0080917A00806880937A0010928E
:10133000C100E0914902F0914A0282E08083E0918D
:101340004502F09146021082E0914702F091480276
:1013500088E0808310925102E0914D02F0914E029C
:1013600086E08083E0914B02F0914C0280818061A5
:101370008083E0914B02F0914C02808188608083F1
:10138000E0914B02F0914C02808180688083E09173
:101390004B02F0914C0280818F7D808361E082E17D
:1013A0000E942E0461E082E10E94FE0361E083E17D
:1013B0000E942E0461E083E10E94FE031092CD01A1
:1013C0001092CC0110921602109238021092140260
:1013D00081E0809313021092EE0161E082E10E94AD
:1013E000FE0361E083E10E94FE038091B9008E7FDD
:1013F0008093B9008091B9008D7F8093B90088E413
:101400008093B80085E48093BC008CE08093B800A2
:1014100061E08AE00E942E0461E08AE00E94FE03FF
:101420008BE398E090931B0380931A0384E193E08D
:101430000E94BC07E2E02E2E8091070390910803E2
:10144000DC01ED91FC910280F381E02D0995882368
:1014500011F40C942F128091120390911303833492
:10146000910509F4E6C3ECF48433910509F410C640
:101470004CF48233910509F422C40CF03EC5892B4B
:10148000D1F1D4C78633910509F46FC50CF4C3C5F7
:101490008F33910509F4D4C68134910509F455C1FF
:1014A000C5C78035910509F479C194F48634910556
:1014B00009F477C32CF48434910509F480C0B6C7CD
:1014C0008934910561F18F34910509F450C0AEC79C
:1014D0008735910509F4D6C62CF48335910509F4B6
:1014E000DBC1A4C78337910509F412C28737910580
:1014F00009F45AC79BC78091070390910803DC0148
:10150000ED91FC910480F581E02D099590E0909398
:10151000130380931203CF9709F091C791C680916E
:10152000070390910803DC01ED91FC910084F185A3
:10153000E02D0995882309F482C7809107039091D3
:101540000803DC01ED91FC910480F581E02D099503
:101550000E94D503A0910703B0910803ED91FC917F
:1015600011970484F585E02D682FCD01C4C48091C6
:10157000070390910803DC01ED91FC910084F18553
:10158000E02D0995823008F45AC7809107039091A5
:101590000803DC01ED91FC910480F581E02D0995B3
:1015A000182F8091070390910803DC01ED91FC91C5
:1015B0000480F581E02D0995682F812F6AC1809103
:1015C000070390910803DC01ED91FC910084F18503
:1015D000E02D0995823008F432C78091070390917D
:1015E0000803DC01ED91FC910480F581E02D099563
:1015F000B82E8091070390910803DC01ED91FC91D6
:101600000480F581E02D0995E0901003F09011031E
:10161000813031F018F0823031F0B7C261E001C0A2
:1016200060E08B2D8FC0BBE0BB1508F46DC061E09E
:101630008B2D0E942E04CB2CD12C8701E3E0BE9E83
:10164000000D111D1124D80113968C918C3008F0D7
:101650009CC261E08B2D0E942E04F8018381282F0B
:1016600030E0A901440F551F240F351FF901EE5139
:10167000FD4F9B2D9F732081207CB22EB92AB08212
:101680009601220F331FC20ED31EF701EC0DFD1D74
:10169000148215826CE00E94C715FCE08F9FB00198
:1016A000112440E050E09A01260F371FF901EE0F98
:1016B000FF1FE20FF31FEE51FD4F908196FD15C005
:1016C0004F5F5F4F4C30510571F781110EC0109282
:1016D0008000209281001092850010928400B19ABF
:1016E00080916F00826080936F00D8011396EC9117
:1016F000F0E0CF01880F991FE80FF91FEE51FD4F61
:1017000080818064808341C28CE98B0D8C3008F02D
:101710003CC2282F30E0A901440F551F240F351F6C
:10172000F701E20FF31FE381F0E09F01220F331F67
:10173000E20FF31FEE51FD4F908196FF26C29F7B73
:10174000908361E00E942E0420C280910703909153
:101750000803DC01ED91FC910084F185E02D0995F1
:10176000882309F46CC68091070390910803DC017B
:10177000ED91FC910480F581E02D09950E946A04A9
:10178000192FA0910703B0910803ED91FC911197D7
:101790000484F585E02D682FCD013EC280910703BA
:1017A00090910803DC01ED91FC910084F185E02D1E
:1017B0000995823008F443C680910703909108038D
:1017C000DC01ED91FC910480F581E02D0995F82E66
:1017D0008091070390910803DC01ED91FC91048056
:1017E000F581E02D0995E82E082F10E061E08F2D9E
:1017F0000E942E040115110509F447C00F3F110581
:1018000009F445C0EF2DF0E0E859FF4FE491E330D3
:10181000F9F048F4E130B9F0E230A1F584B5806226
:1018200084BDE8BCB2C1E730E9F0E83019F1E4303A
:1018300049F58091800080628093800010938B0036
:1018400000938A00A2C184B5806884BDE7BC9DC1B5
:1018500080918000806880938000109389000093BD
:10186000880093C18091B00080688093B000E092BE
:10187000B3008BC18091B00080628093B000E09291
:10188000B40083C10038110514F460E001C061E0C8
:101890008F2D0E94FE0379C1809107039091080368
:1018A000DC01ED91FC910084F185E02D09958230F9
:1018B00008F4C5C58091070390910803DC01ED9100
:1018C000FC910480F581E02D0995182F8091070384
:1018D00090910803DC01ED91FC910480F581E02DED
:1018E000099540911003509111031C3008F0A7C5D1
:1018F000682F70E04D5F5F4F212F30E0C901880FE6
:10190000991F820F931F840F951F0E9405053DC1EB
:101910008091070390910803DC01ED91FC91008414
:10192000F185E02D0995853008F489C5809107037C
:1019300090910803DC01ED91FC910480F581E02D8C
:1019400009958C878091070390910803DC01ED9144
:10195000FC910480F581E02D0995182F80910703F3
:1019600090910803DC01ED91FC910480F581E02D5C
:101970000995082F8091070390910803DC01ED91F0
:10198000FC910480F581E02D0995F82E80910703E4
:1019900090910803DC01ED91FC910480F581E02D2C
:1019A0000995682F70E080E090E00E94A81420E084
:1019B00030E04AE754E40E9407142B013C01BAE0EE
:1019C000FB9EB0011124E0911003F0911103FD83FF
:1019D000EC83101718F4302E311A02C0312E301A51
:1019E00080E090E00E94A814A30192010E945A1581
:1019F000688779878A879B8720E030E040E05FE353
:101A00000E945A15A30192010E945A156D877E8784
:101A10008F87988B20E030E04AE754E4C301B2019D
:101A20000E945A150E947914812C912C5401750141
:101A30006401832D90E0A0E0B0E0898B9A8BAB8BA2
:101A4000BC8B812F90E0A0E0B0E08D8B9E8BAF8BA4
:101A5000B88F4C815D814D5F5F4FAC858A2F90E0E0
:101A60009C01220F331F820F931FFA01E80FF91F09
:101A7000FA8FE98F862F90E0A0E0B0E08B8F9C8FEB
:101A8000AD8FBE8F69897A898B899C890E94AA143F
:101A90006C837D838E839F8320E030E040E05FE3B2
:101AA0000E9495139B01AC01C701B6010E9402146C
:101AB00087FF6BC020E030E040E05FE36C817D8118
:101AC0008E819F810E945A159B01AC01C701B6010E
:101AD0000E940214A301920187FF1BC0C501B4013B
:101AE0000E945A152D853E854F8558890E94961370
:101AF0009B01AC01C701B6010E9496136B017C01EA
:101B0000288539854A855B85C501B4010E949613F5
:101B10001AC0C501B4010E945A152D853E854F8516
:101B200058890E9495139B01AC01C701B6010E9420
:101B300096136B017C01288539854A855B85C50133
:101B4000B4010E9495134B015C016D897E898F89D8
:101B5000988D0E94AA14A7019601011718F00E94FF
:101B6000961302C00E9495130E9479149C859C30A4
:101B700028F470E0898D9A8D0E9405056B8D7C8D0F
:101B80008D8D9E8D0E9481047DCF80910703909161
:101B90000803DC01ED91FC910484F585E02D6FEFE5
:101BA000AAC18091070390910803DC01ED91FC919B
:101BB0000084F185E02D0995882309F440C48091C3
:101BC000070390910803DC01ED91FC910480F581FD
:101BD000E02D0995182F0E94A108882319F00FEF16
:101BE0001FEF0FC0E0908600F0908700812F0E94C9
:101BF000A1088111F4CF00918600109187000E1981
:101C00001F098091070390910803DC01ED91FC917D
:101C10000484F585E02D602F09958091070390914C
:101C20000803DC01ED91FC910484F585E02D612F22
:101C300062C18091070390910803DC01ED91FC9152
:101C40000084F185E02D0995833008F4F8C3809174
:101C5000070390910803DC01ED91FC910480F5816C
:101C6000E02D0995182F8091070390910803DC015E
:101C7000ED91FC910480F581E02D0995082F80916C
:101C8000070390910803DC01ED91FC910480F5813C
:101C9000E02D0995F82E61E0812F0E94FE03FF20C0
:101CA00049F0802F0E946A048BEE95E00197F1F7CE
:101CB000FA94F5CF60E0812F0E94FE03D4C3809197
:101CC000070390910803DC01ED91FC910084F185FC
:101CD000E02D0995882309F4B2C380910703909100
:101CE0000803DC01ED91FC910480F581E02D09955C
:101CF000182F80910B03833009F484C040F48823AB
:101D000069F0823009F09BC310930D0386C08430C4
:101D100009F486C0853009F4ABC091C3133509F4CA
:101D200065C0E8F41634F1F190F41134B1F11534D2
:101D300009F085C38091090390910A03DC01ED91BC
:101D4000FC910484F585E02D60910C0362C11C3484
:101D500039F1123509F073C310920F0337C01C36E6
:101D6000C1F190F4173501F1113609F068C3809183
:101D7000090390910A03DC01ED91FC910484F5853F
:101D8000E02D60910D0345C11237E9F0173709F0D6
:101D900056C381E080930F0307C020920B034FC30B
:101DA00083E00EC084E00CC080910D0391E090931D
:101DB000150280933702109216021092380285E0C5
:101DC00080930B033CC381E080930F030E94CD08F6
:101DD00036C38091090390910A03DC01ED91FC91D7
:101DE0000484F585E02D60910E0313C180910903F1
:101DF00090910A03DC01ED91FC910484F585E02DBE
:101E000060E007C1113238F081E080930B038CE46D
:101E100080930C0314C310930E0310920B030FC393
:101E2000212F30E0A0E1B7E20E9486139B01AC01B4
:101E300060E074E284EF90E00E946413DA01C9016B
:101E40004097A109B109B695A79597958795809375
:101E5000B8008091090390910A03DC01ED91FC9197
:101E60000484F585E02D612F099510920B03FBC2C8
:101E700080910E038823F1F0612F86ED92E00E949D
:101E80006E02892B91F481E080930B0387E58093A8
:101E90000C038091090390910A03DC01ED91FC9100
:101EA0000484F585E02D67E526C080910E038150FE
:101EB00080930E0380910E038111C1C210920B0317
:101EC00080910F0311E081270E944408882329F0A4
:101ED00010930B0383E580930C0310920F03809102
:101EE000090390910A03DC01ED91FC910484F585CE
:101EF000E02D60910C030995B6C280910703909183
:101F00000803DC01ED91FC910084F185E02D099539
:101F1000882309F494C28091070390910803DC019F
:101F2000ED91FC910480F581E02D0995E091070386
:101F3000F09108030190F081E02D0484F585E02DF7
:101F4000A0911003B091110399969C91953038F4AB
:101F50008EBD00000DB407FEFDCF6EB501C060E080
:101F6000809107039091080354C0809107039091DA
:101F70000803DC01ED91FC910084F185E02D0995C9
:101F8000882309F45CC28091070390910803DC0167
:101F9000ED91FC910480F581E02D0995D82EE0911A
:101FA0000703F09108030190F081E02D0485158569
:101FB000E0901003F0901103F70181A5853018F52A
:101FC00085A5811103C082A50E942208DEBC000005
:101FD0000DB407FEFDCF6EB5D7019D968C919D97F0
:101FE0008F5F9D968C939D979C969C919C9789134F
:101FF0000BC09D961C929D979B968C916F8F0E9413
:1020000022086F8D01C060E0809107039091080362
:10201000F801099514C28091070390910803DC012F
:10202000ED91FC910084F185E02D0995833008F451
:1020300006C28091070390910803DC01ED91FC91A9
:102040000480F581E02D0995082F80910703909178
:102050000803DC01ED91FC910480F581E02D0995E8
:10206000182F8091070390910803DC01ED91FC91FA
:102070000480F581E02D0995E0911003F0911103A2
:1020800002A713A784A715A6812F0E942208EBC1DF
:102090008091070390910803DC01ED91FC9100848D
:1020A000F185E02D0995833008F4C9C180910703BB
:1020B00090910803DC01ED91FC910480F581E02D05
:1020C0000995B82E8091070390910803DC01ED91EA
:1020D000FC910480F581E02D0995C82E80910703BD
:1020E00090910803DC01ED91FC910480F581E02DD5
:1020F0000995D82EE0910703F09108030190F08133
:10210000E02DE484F58400911003109111030E94E6
:102110002A080E944906B4E0BB1520F48FEFF801AD
:1021200081A786C0D8019996BC92BFB6F8948091D9
:102130007801811127C0E4EAF0E08491E0E9F0E061
:102140009491E82FF0E0EE0FFF1FE458FF4FA591A8
:10215000B4918C91982321F461E08AE00E94FE03FF
:1021600061E08AE00E942E048CB580618CBD8CB544
:1021700080648CBD61E08DE00E942E0461E08BE004
:102180000E942E04809178018F5F80937801BFBEFA
:10219000D8019996EC91F0E0ED58FE4FE0812D2D9D
:1021A00030E0322F2227C901A0E0B0E09C01AD0150
:1021B0002C0D311D411D511DA4E6B0E00E945113AC
:1021C00020E0812CB2E19B2EBAE7AB2EB12CB69465
:1021D000A794979487942F5F263031F0681579057E
:1021E0008A059B0510F4F3CF27E081E08227EC708D
:1021F000E065982F9695E92B817090917A0199234B
:1022000079F09FB7F89420917A01213039F42DB3F9
:10221000209379012DB32DBB9FBF02C0909379010C
:10222000ECBD8DBD6FE070E080E090E00E94810425
:10223000F80161A58091070390910803F7015BCE37
:10224000E0911003F091110340810181128180918E
:10225000070390910803DC01ED91FC910484F5855E
:10226000E02D642F4F8F099580910703909108030B
:10227000DC01ED91FC910684F785E02D4F8DB801CE
:102280000995F1C08091070390910803DC01ED915D
:10229000FC910084F185E02D0995863008F4CFC0CB
:1022A0008091070390910803DC01ED91FC9104807B
:1022B000F581E02D0995F82E809107039091080390
:1022C000DC01ED91FC910480F581E02D0995C82E8B
:1022D000D12C8091070390910803DC01ED91FC91D2
:1022E0000480F581E02D0995082F10E0102F0027BC
:1022F0000C0D1D1D8091070390910803DC01ED91E9
:10230000FC910480F581E02D09958A838091070373
:1023100090910803DC01ED91FC910480F581E02DA2
:10232000099589838091070390910803DC01ED9161
:10233000FC910480F581E02D09958B8361E08F2D60
:102340000E942E04B8E0BF1528F4E8EFFE0EE5E287
:10235000F0E002C0EBE2F0E0A0911003B0911103B5
:102360009F96FC93EE939E9781E090E001C0880FCA
:10237000FA94EAF7D0968C93D0978095D1968C9367
:102380009081892380830115110509F46CC0809127
:10239000100390911103BE016F5F7F4F8E960E94D4
:1023A0008B0701501109EFCF80910703909108032B
:1023B000DC01ED91FC910084F185E02D09958823E5
:1023C000F1F18091070390910803DC01ED91FC91FC
:1023D0000480F581E02D09952091100330911103BF
:1023E000482F50E0FA01F595E795F595E795E770E8
:1023F000FF27E15EFE4F9081998365E055954795F3
:102400006A95E1F7FA01E15EFE4F90819A8383704D
:10241000E82FF0E0E55EFE4F80818B83BE016F5FA9
:102420007F4FC9018E960E948B0709C0109213033B
:10243000109212030E942A0881E00E9444088091B1
:102440000C038E3461F08091070390910803DC0146
:10245000ED91FC910484F585E02D6BE109950E94D6
:1024600088010C941C0A1092130310921203E7CFF8
:1024700010923C0210923B0288EE93E0A0E0B0E0A4
:1024800080933D0290933E02A0933F02B09340029E
:102490002BE231E030933A022093390225EC30E010
:1024A000309346022093450224EC30E030934802FA
:1024B0002093470220EC30E030934A0220934902F7
:1024C00021EC30E030934C0220934B0222EC30E0C0
:1024D00030934E0220934D0226EC30E030935002B0
:1024E00020934F0210925202109253021092540203
:1024F000109255021092D9021092D8028093DA02FB
:102500009093DB02A093DC02B093DD028DE391E0B7
:102510009093D7028093D60280E091E090932D03B0
:1025200080932C0380910603AEE2B3E09FEF48EB6B
:102530005BE08C3078F48C93282F30E0F901EE0FBB
:10254000FF1F2E0F3F1FF901EE51FD4F52834183B4
:102550008F5F01C09C93139623E0A235B20749F721
:102560008093060310925403109255031092560361
:1025700010925703109258030E942A080E9449069D
:102580008FEF8093540325E230E030935A03209379
:10259000590310925B0380935C03E0912C03F0914C
:1025A0002D0380E09191992321F0803211F08F5F0B
:1025B000F9CF80932B030E942A080E9449068FEFCF
:1025C0008093540383E691E0909315038093140362
:1025D0008CE593E0909317038093160386E493E0D1
:1025E0009093190380931803E0911A03F0911B0351
:1025F000309709F0099584E193E010921B03109243
:102600001A032FE431E030931503209314032CE1D7
:1026100033E0309325032093240328E020932603FE
:1026200010922703109228031092290310922A0374
:10263000909308038093070390930A038093090300
:1026400010920B038EE480930C0310920F038BE225
:1026500093E0909311038093100310921303109250
:1026600012030895052E97FB1EF400940E9449134F
:1026700057FD07D00E94641307FC03D04EF40C945E
:10268000491350954095309521953F4F4F4F5F4FDF
:10269000089590958095709561957F4F8F4F9F4FCE
:1026A00008950E948613A59F900DB49F900DA49F3E
:1026B000800D911D11240895B7FF0C9451130E94B1
:1026C0005113821B930B0895A1E21A2EAA1BBB1B68
:1026D000FD010DC0AA1FBB1FEE1FFF1FA217B307EE
:1026E000E407F50720F0A21BB30BE40BF50B661F04
:1026F000771F881F991F1A9469F7609570958095C8
:1027000090959B01AC01BD01CF010895A29FB0013E
:10271000B39FC001A39F700D811D1124911DB29F15
:10272000700D811D1124911D08955058BB27AA27B3
:102730000E94AD130C9420150E94121538F00E94CF
:10274000191520F039F49F3F19F426F40C940F1555
:102750000EF4E095E7FB0C940915E92F0E94311562
:1027600058F3BA17620773078407950720F079F4C6
:10277000A6F50C9453150EF4E0950B2EBA2FA02D50
:102780000B01B90190010C01CA01A0011124FF271E
:10279000591B99F0593F50F4503E68F11A16F04019
:1027A000A22F232F342F4427585FF3CF4695379518
:1027B0002795A795F0405395C9F77EF41F16BA0BDD
:1027C000620B730B840BBAF09150A1F0FF0FBB1F8B
:1027D000661F771F881FC2F70EC0BA0F621F731FD4
:1027E000841F48F4879577956795B795F7959E3F31
:1027F00008F0B0CF9395880F08F09927EE0F9795C2
:10280000879508950E94E51408F481E008950E94D8
:102810001B140C9420150E94191558F00E941215D3
:1028200040F029F45F3F29F00C94091551110C94E4
:1028300054150C940F150E94311568F39923B1F3C8
:10284000552391F3951B550BBB27AA2762177307D6
:10285000840738F09F5F5F4F220F331F441FAA1F6A
:10286000A9F335D00E2E3AF0E0E832D09150504026
:10287000E695001CCAF72BD0FE2F29D0660F771FD4
:10288000881FBB1F261737074807AB07B0E809F0BA
:10289000BB0B802DBF01FF2793585F4F3AF09E3F3F
:1028A000510578F00C9409150C9454155F3FE4F32E
:1028B000983ED4F3869577956795B795F7959F5F82
:1028C000C9F7880F911D9695879597F90895E1E0CE
:1028D000660F771F881FBB1F621773078407BA072D
:1028E00020F0621B730B840BBA0BEE1F88F7E09588
:1028F00008950E94391588F09F5798F0B92F9927AD
:10290000B751B0F0E1F0660F771F881F991F1AF0DA
:10291000BA95C9F714C0B13091F00E945315B1E0D7
:1029200008950C945315672F782F8827B85F39F0D6
:10293000B93FCCF3869577956795B395D9F73EF473
:1029400090958095709561957F4F8F4F9F4F08951B
:10295000E89409C097FB3EF4909580957095619539
:102960007F4F8F4F9F4F9923A9F0F92F96E9BB27EF
:102970009395F695879577956795B795F111F8CF6B
:10298000FAF4BB0F11F460FF1BC06F5F7F4F8F4FD6
:102990009F4F16C0882311F096E911C0772321F0CC
:1029A0009EE8872F762F05C0662371F096E8862F64
:1029B00070E060E02AF09A95660F771F881FDAF7BB
:1029C000880F9695879597F90895990F0008550FE8
:1029D000AA0BE0E8FEEF16161706E807F907C0F0A5
:1029E00012161306E407F50798F0621B730B840BAD
:1029F000950B39F40A2661F0232B242B252B21F487
:102A000008950A2609F4A140A6958FEF811D811D26
:102A1000089597F99F6780E870E060E008959FEF60
:102A200080EC089500240A94161617061806090665
:102A3000089500240A941216130614060506089534
:102A4000092E0394000C11F4882352F0BB0F40F4BC
:102A5000BF2B11F460FF04C06F5F7F4F8F4F9F4FFC
:102A6000089557FD9058440F551F59F05F3F71F07E
:102A70004795880F97FB991F61F09F3F79F08795E5
:102A80000895121613061406551FF2CF4695F1DF6E
:102A900008C0161617061806991FF1CF86957105FE
:102AA000610508940895E894BB2766277727CB0132
:102AB00097F908950E946D150C9420150E94121527
:102AC00038F00E94191520F0952311F00C94091587
:102AD0000C940F1511240C9454150E94311570F3A9
:102AE000959FC1F3950F50E0551F629FF001729FB3
:102AF000BB27F00DB11D639FAA27F00DB11DAA1FC2
:102B0000649F6627B00DA11D661F829F2227B00D0E
:102B1000A11D621F739FB00DA11D621F839FA00D99
:102B2000611D221F749F3327A00D611D231F849FE9
:102B3000600D211D822F762F6A2F11249F57504040
:102B40009AF0F1F088234AF0EE0FFF1FBB1F661FBB
:102B5000771F881F91505040A9F79E3F510580F084
:102B60000C9409150C9454155F3FE4F3983ED4F38C
:102B7000869577956795B795F795E7959F5FC1F728
:102B8000FE2B880F911D9695879597F90895991BAF
:102B900079E004C0991F961708F0961B881F7A9554
:102BA000C9F780950895EE0FFF1F0590F491E02D71
:102BB000099481E090E0F8940C94DE15F894FFCF2E
:102BC00047534F462041726475696E6F20494F2DFF
:102BD00042726964676520322E31000055AAFF00F9
:102BE00024486C90B4D8FF000000001F018C00B78F
:102BF000006601E800C600DA00000000006E023E38
:102C0000029E02120236022202130200000000435A
:102C100003C807F502ED02EA020B03C902A1020094
:102C20000000007B037B037B037B037B037B037B35
:082C3000037B030004080CFF04
:00000001FF
