:100000000C9462000C948A000C948A000C948A0070
:100010000C948A000C948A000C948A000C948A0038
:100020000C948A000C948A000C948A000C944E055F
:100030000C948A000C948A000C948A000C948A0018
:100040000C9481040C948A000C947E030C94580345
:100050000C948A000C948A000C948A000C948A00F8
:100060000C9423060C948A00000000080002010092
:100070000003040700000000000000000000000072
:10008000240027002A0001020408102040800102F9
:1000900004081020010204081020040404040404CD
:1000A000040402020202020203030303030300002A
:1000B0000000250028002B0000000000230026007F
:1000C00029007F1011241FBECFEFD8E0DEBFCDBFC7
:1000D00011E0A0E0B1E0E6E2F8E202C005900D9286
:1000E000AC36B107D9F723E0ACE6B1E001C01D9210
:1000F000A934B207E1F710E0C2E6D0E004C02197CE
:10010000FE010E940614C136D107C9F70E94D90822
:100110000C9411140C940000CF92DF92EF92FF9296
:100120000F931F93CF93DF936C017A018B01C0E093
:10013000D0E0CE15DF0589F0D8016D918D01D60193
:10014000ED91FC910190F081E02DC6010995892B7C
:1001500011F47E0102C02196ECCFC701DF91CF914F
:100160001F910F91FF90EF90DF90CF900895FC01C9
:10017000538D448D252F30E0842F90E0821B930B0C
:10018000541710F0CF96089501970895FC01918DB2
:10019000828D981761F0828DDF01A80FB11D5D96E9
:1001A0008C91928D9F5F9F73928F90E008958FEF57
:1001B0009FEF0895FC01918D828D981731F0828D0B
:1001C000E80FF11D858D90E008958FEF9FEF089562
:1001D000FC01918D228D892F90E0805C9F4F821BC6
:1001E00091098F73992708958DE292E00E94E800AB
:1001F00021E0892B09F420E0822F0895FC01848DF1
:10020000DF01A80FB11DA35ABF4F2C91848D90E040
:1002100001968F739927848FA689B7892C93A0891B
:10022000B1898C9180648C93938D848D981306C0D2
:100230000288F389E02D80818F7D80830895EF927D
:10024000FF920F931F93CF93DF93EC0181E0888F90
:100250009B8D8C8D981305C0E889F989808185FD77
:1002600024C0F62E0B8D10E00F5F1F4F0F73112768
:10027000E02E8C8DE8120CC00FB607FCFACFE8898F
:10028000F989808185FFF5CFCE010E94FE00F1CF74
:100290008B8DFE01E80FF11DE35AFF4FF0820B8FAB
:1002A000EA89FB898081806207C0EE89FF896083CB
:1002B000E889F98980818064808381E090E0DF9122
:1002C000CF911F910F91FF90EF900895CF93DF93FF
:1002D000EC01888D8823C9F0EA89FB89808185FD3E
:1002E00005C0A889B9898C9186FD0FC00FB607FC9F
:1002F000F5CF808185FFF2CFA889B9898C9185FFE0
:10030000EDCFCE010E94FE00E7CFDF91CF9108959F
:1003100080E090E0892B29F00E94F40081110C9478
:1003200000000895833081F028F4813099F0823004
:10033000A1F008958730A9F08830B9F08430D1F465
:10034000809180008F7D03C0809180008F778093A3
:100350008000089584B58F7702C084B58F7D84BDF9
:1003600008958091B0008F7703C08091B0008F7D99
:100370008093B000089585ED8093BC008091BC000F
:1003800084FDFCCF10920802089540919101262F20
:1003900030E0240F311D21323105DCF420910802B8
:1003A0002430C9F4FC0180E090E0861758F43091C5
:1003B00091012191DC01A159BE4FA30FB11D2C93D6
:1003C0000196F3CF80919101680F6093910180E0D5
:1003D000089581E0089582E008950895E091C101B3
:1003E0008091C001E81730F4F0E0EE53FE4F8081B9
:1003F00090E008958FEF9FEF08959091C101809153
:10040000C001981750F4E92FF0E0EE53FE4F208121
:1004100030E09F5F9093C10102C02FEF3FEFC90111
:1004200008958091C00190E02091C101821B910943
:100430000895CF92DF92EF92FF920F931F93CF9385
:10044000DF937C01262F972F8A0180910902882350
:1004500091F0C62FD72F6E01C40ED51ECC15DD0529
:1004600071F06991D701ED91FC910190F081E02D3F
:10047000C7010995F3CF642F822F0E94C501C801DF
:10048000DF91CF911F910F91FF90EF90DF90CF9070
:100490000895CF93DF931F92CDB7DEB76983209184
:1004A00009022223D1F020912C02203240F021E0D9
:1004B00030E0FC013383228380E090E015C080911E
:1004C0000A02E82FF0E0E55FFD4F998190838F5F8E
:1004D00080930A0280932C0205C061E0CE01019650
:1004E0000E94C50181E090E00F90DF91CF910895C7
:1004F000089580E090E00895CF92DF92FF920F93ED
:100500001F93CF93DF931F92CDB7DEB78C01F62EEA
:100510006B018C2D8F19841770F4D6016D916D01CC
:10052000D801ED91FC910484F585E02DC801498343
:1005300009954981EECF0F90DF91CF911F910F91D7
:10054000FF90DF90CF900895CF93DF9300D0CDB789
:10055000DEB76C3519F4698325EC05C06B3131F4D5
:100560002CE5298321EB2A8362E002C0698361E0E4
:10057000DC011496ED91FC911597CE010196099539
:100580000F900F90DF91CF910895FC018589089518
:10059000FC0181E024899389291301C080E008953A
:1005A000FC0184899389891719F095899150958B5D
:1005B000208931898F5F848B9289891708F0148A8A
:1005C0008489F901E80FF11D80810895CF93DF93AD
:1005D000FC0161157105C1F0262FDB018A2F821BFA
:1005E00094893389931789F0841778F4C089D18965
:1005F0009F5F948B8289981708F0148A8489C80FAA
:10060000D11D88818D93EACF80E0DF91CF9108954D
:10061000FC0185819281891710F48F5F8583A08109
:10062000B18183818F5F891710F4838301C01382A6
:100630008381A80FB11D6C938581089540960C9419
:1006400008030F931F93CF93DF93162F082FEC010E
:100650008C2F801B811730F469918DE292E00E940B
:100660001F01F6CFDF91CF911F910F910895FF9257
:100670000F931F93CF93DF93062FF82EEC011C2FBF
:100680001F19101760F48DE292E00E94E800892B98
:1006900031F08DE292E00E94C6008993F0CF812F65
:1006A000DF91CF911F910F91FF9008950E940C143C
:1006B0001F920F920FB60F9211242F933F934F93D7
:1006C0005F936F937F938F939F93AF93BF93EF93BA
:1006D000FF938DE292E00E94FE00FF91EF91BF91A7
:1006E000AF919F918F917F916F915F914F913F91CA
:1006F0002F910F900FBE0F901F9018951F920F9281
:100700000FB60F9211242F938F939F93EF93FF9324
:10071000E0913D02F0913E028081E0914302F09130
:10072000440282FD12C09081809146028F5F8F73D8
:1007300020914702821751F0E0914602F0E0E35D1C
:10074000FD4F958F8093460201C08081FF91EF910C
:100750009F918F912F910F900FBE0F901F90189522
:10076000CF93DF93282F30E0F901E859FF4F8491B0
:10077000F901EA57FF4FD491F901E656FF4FC491B2
:10078000CC2391F081110E949201EC2FF0E0EE0F4A
:10079000FF1FE854FF4FA591B491EC91ED2381E048
:1007A00090E021F480E002C080E090E0DF91CF9102
:1007B00008951F93CF93DF93282F30E0F901E85974
:1007C000FF4F8491F901EA57FF4FD491F901E656A2
:1007D000FF4FC491CC23C9F0162F81110E949201C2
:1007E000EC2FF0E0EE0FFF1FE255FF4FA591B49103
:1007F0008FB7F894111105C09C91ED2FE095E92376
:1008000002C0EC91ED2BEC938FBFDF91CF911F9144
:100810000895CF93DF9390E0FC01EA57FF4F2491B6
:10082000FC01E656FF4F8491882361F190E0880F28
:10083000991FFC01E458FF4FC591D491FC01E2558A
:10084000FF4FA591B491611109C09FB7F8948881B9
:10085000209582238883EC912E230BC0623061F4B3
:100860009FB7F8943881822F809583238883EC91F9
:100870002E2B2C939FBF06C08FB7F894E8812E2BA8
:1008800028838FBFDF91CF9108958E3008F08E506E
:100890008770806480937C0080917A00806480936C
:1008A0007A0080917A0086FDFCCF809178002091BB
:1008B000790090E0922B08953FB7F8948091BC01A5
:1008C0009091BD01A091BE01B091BF0126B5A89B3A
:1008D00005C02F3F19F00196A11DB11D3FBFBA2FD2
:1008E000A92F982F8827820F911DA11DB11DBC0132
:1008F000CD0142E0660F771F881F991F4A95D1F7F7
:1009000008951F920F920FB60F9211242F933F93C9
:100910008F939F93AF93BF938091B8019091B9014A
:10092000A091BA01B091BB013091B70123E0230F30
:100930002D3720F40196A11DB11D05C026E8230F17
:100940000296A11DB11D2093B7018093B801909329
:10095000B901A093BA01B093BB018091BC01909101
:10096000BD01A091BE01B091BF010196A11DB11DB5
:100970008093BC019093BD01A093BE01B093BF01D1
:10098000BF91AF919F918F913F912F910F900FBE8B
:100990000F901F901895CF92DF92EF92FF92CF9316
:1009A000DF93EC01603282E078070CF03DC077FD08
:1009B00006C0653B71052CF064EB70E002C060E09E
:1009C00070E0898128E830E06901C81AD10887FD04
:1009D000D394CC0CDD1CCC0CDD1C0D2C000CEE08D3
:1009E000FF088A8128E532E0281B310987FD33950D
:1009F000220F331F220F331FC901330FAA0BBB0B6A
:100A00009C01AD012C193D094E095F09DB010E94D3
:100A10008F1124EB30E040E050E00E946511C20EDF
:100A2000D31EE41EF51EB60188818C3080F59981B5
:100A300048E850E0491B510997FD5395440F551F55
:100A4000440F551F6417750784F09A8128E532E03A
:100A5000291B310997FD3395220F331F220F331FB6
:100A6000AB01261737070CF4A90142505109440F76
:100A7000551F2FB7F89490E0FC01EE0FFF1F8E0F6B
:100A80009F1FFC01EA52FD4F528341832FBFDF912C
:100A9000CF91FF90EF90DF90CF9008951F920F922B
:100AA0000FB60F9211242F933F934F935F936F9341
:100AB0007F938F939F93AF93BF93EF93FF93809117
:100AC000B60187FF05C010928500109284001BC0FC
:100AD0002091B601022E000C330B8091FA0290E0B7
:100AE0002817390784F48091B601082E000C990B61
:100AF000FC01EE0FFF1F8E0F9F1FFC01EA52FD4FFE
:100B0000808186FD15C08091B6018F5F8093B6010C
:100B10002091B601022E000C330B8091FA0290E076
:100B200028173907C4F48091B6018C3064F113C0E2
:100B30008091B601082E000C990BFC01EE0FFF1FEF
:100B40008E0F9F1FFC01EA52FD4F808160E08F7382
:100B50000E94D903D8CF809184009091850004969B
:100B600080349C4918F480E49CE905C0809184009D
:100B700090918500049690938900809388008FEF70
:100B80008093B6013BC02091840030918500809114
:100B9000B601082E000C990BFC01EE0FFF1F8E0F03
:100BA0009F1FFC01EA52FD4F81819281820F931FAA
:100BB00090938900809388008091B601082E000CE4
:100BC000990BFC01EE0FFF1F8E0F9F1FFC01EA52D5
:100BD000FD4F808186FF12C08091B601082E000C67
:100BE000990BFC01EE0FFF1F8E0F9F1FFC01EA52B5
:100BF000FD4F808161E08F730E94D903FF91EF91D7
:100C0000BF91AF919F918F917F916F915F914F9124
:100C10003F912F910F900FBE0F901F9018959FB787
:100C2000F89480916C01882319F0815080936C01B5
:100C300080916C01811105C08CB58F7B8CBD1092A9
:100C40006E019FBF08951F920F920FB60F9211244D
:100C50002F933F934F935F936F937F938F939F93C4
:100C6000AF93BF93EF93FF938091B900887F803655
:100C700009F49CC068F5883209F45BC090F48031B7
:100C800009F454C038F4882309F4F6C0883009F414
:100C90004DC0F6C0883109F44CC0803209F45DC003
:100CA000EFC0803409F468C048F4803309F455C0BB
:100CB000883309F0E5C080930602D8C0803509F476
:100CC0004FC0883509F45DC0883409F0D9C0D6C05A
:100CD000883909F4C7C0A8F4883709F467C038F424
:100CE000883609F463C0803709F460C0C9C0883809
:100CF00009F4B8C0803909F45FC0803809F0C0C079
:100D00005BC0803B09F486C038F4803A09F466C0C1
:100D1000883A09F47FC0B4C0803C09F4A7C0883C7D
:100D200009F4A4C0883B09F48AC0AAC08091E301F9
:100D300010C09091050280910402981770F5E0911F
:100D4000050281E08E0F80930502F0E0EC51FE4F2A
:100D500080818093BB0085EC86C0809306028EC0A4
:100D6000E091050281E08E0F809305028091BB0027
:100D7000F0E0EC51FE4F80839091050280910402D7
:100D80006EC0E091050281E08E0F80930502809194
:100D9000BB00F0E0EC51FE4F80838091070281118F
:100DA0006DC081E08093E20184EA61C083E08093BA
:100DB00008021092B501CFCF8091B501803208F0C2
:100DC00051C0E091B50181E08E0F8093B501809113
:100DD000BB00F0E0EB56FE4F8083BDCF85EC8093E7
:100DE000BC00109208028091B501803230F4E0918D
:100DF000B501F0E0EB56FE4F10826091B50170E056
:100E0000E0919301F091940185E991E009951092A8
:100E1000B50136C084E080930802109292011092CE
:100E20009101E0918F01F0919001099580919101DC
:100E3000811105C081E08093910110926F01E091D2
:100E4000920181E08E0F80939201F0E0E159FE4F14
:100E500080818093BB0090919201809191019817BD
:100E600008F479CF85E88093BC000AC085EC8093B4
:100E7000BC001092080204C0109206020E94BB013E
:100E8000FF91EF91BF91AF919F918F917F916F9162
:100E90005F914F913F912F910F900FBE0F901F9038
:100EA0001895FC01138A148A158A168A0680F78120
:100EB000E02D309709F0099408958F929F92AF9298
:100EC000BF92CF92DF92EF92FF920F931F93CF9337
:100ED000DF931F92CDB7DEB78C01DC011296ED9146
:100EE000FC91139761E0CE0101967C010995982E43
:100EF0006701580190E1A90EB11C882483948C2DC0
:100F00008E198915F0F4D6016D916D01F80186896D
:100F1000882349F0168A613B21F0653C51F46CE569
:100F20000CC06BE10AC06B3121F06C3531F4868A5C
:100F3000E6CFC8010E945107E2CFC5010E94080315
:100F4000DECFD801ED91FC910680F781E02DC8013C
:100F500009950F90DF91CF911F910F91FF90EF9026
:100F6000DF90CF90BF90AF909F908F900895809129
:100F70006E01882361F09FB7F89420916E018091F3
:100F80006D01213019F48DBB9FBF08958FBF089567
:100F900010920703109206030E94B70781E00C9499
:100FA000D107382F20912C0290912B02213208F08A
:100FB00049C0809108028111FCCF42E040930802B1
:100FC000309307023FEF3093060210920502209300
:100FD0000402ABE0B2E044EE51E0FA013E2F341BD4
:100FE000321718F43D913193F9CF1092E30120911B
:100FF000E301990F922B9093E3019091E2019130DC
:1010000061F41092E2019091E3019093BB00909102
:10101000BC0093FDF8CF95EC01C095EE9093BC0019
:10102000909108029230E1F3909106029F3F79F08F
:1010300080910602803241F080910602803331F0C7
:1010400084E005C081E003C082E001C083E010922B
:101050000A0210922C021092090208951F93CF9356
:10106000DF93182FC0918600D0918700D05920912E
:101070008600309187002C1B3D0B21303048B8F79B
:10108000812F0E94B003019791F320918600309147
:1010900087002C1B3D0B2130304838F0812F0E94F7
:1010A000B003019791F780E001C08FEFDF91CF91FE
:1010B0001F9108950F931F93CF9320910303C09125
:1010C000020380910103909108029111FCCFC1327B
:1010D00008F0C0E291E090930802292720930702CC
:1010E0002FEF20930602109205022C0F209304028A
:1010F0009093E3019091E301880F892B8093E301A2
:101100008091E201813061F41092E2018091E3016B
:101110008093BB008091BC0083FDF8CF85EC01C0BB
:1011200085EE8093BC00809108028130E1F38091CC
:1011300005028C1710F4C0910502A4EEB1E022EC78
:1011400031E0F9018E2F821B8C1718F48D91819359
:10115000F9CF1092C101C093C00110920303809196
:10116000FD029091FE02DC01ED91FC910484F58575
:10117000E02D6C2F0995CC23B1F0E091FD02F091A8
:10118000FE020190F081E02D048515858AEC92E045
:101190000E94FD01682F8091FD029091FE02F801EE
:1011A0000995C150E8CF1092FF02CF911F910F9186
:1011B0000895CF93DF93CDB7DEB76E970FB6F8944F
:1011C000DEBF0FBECDBF789484B5826084BD84B588
:1011D000816084BD85B5826085BD85B5816085BD32
:1011E00080916E00816080936E00109281008091EA
:1011F0008100826080938100809181008160809372
:101200008100809180008160809380008091B10096
:1012100084608093B1008091B00081608093B000C1
:1012200080917A00846080937A0080917A00826055
:1012300080937A0080917A00816080937A00809117
:101240007A00806880937A001092C100E0913D029C
:10125000F0913E0282E08083E0913902F0913A02FF
:101260001082E0913B02F0913C0288E08083109272
:101270004502E0914102F091420286E08083E091D4
:101280003F02F0914002808180618083E0913F02C3
:10129000F0914002808188608083E0913F02F0916C
:1012A0004002808180688083E0913F02F09140029B
:1012B00080818F7D808361E082E10E94090461E08A
:1012C00082E10E94D90361E083E10E94090461E0A8
:1012D00083E10E94D9031092C1011092C0011092C3
:1012E0000A0210922C021092080281E080930702F9
:1012F0001092E20161E082E10E94D90361E083E1A2
:101300000E94D9038091B9008E7F8093B9008091AB
:10131000B9008D7F8093B90088E48093B80085E49C
:101320008093BC008CE08093B80061E08AE00E946A
:10133000090461E08AE00E94D90388EC97E0909369
:101340000F0380930E0388E093E00E94510702E0B0
:101350008091FB029091FC02DC01ED91FC910280F6
:10136000F381E02D0995882309F4C6C68091060310
:10137000909107038334910509F410C4BCF48333BE
:10138000910509F46EC534F4009771F1C29709F420
:101390004BC499C68F33910509F473C68134910506
:1013A00009F448C1C49709F08EC694C58F349105DD
:1013B00009F456C064F48634910509F4A4C3893451
:1013C000910531F18434910509F07DC670C08335F3
:1013D000910509F4E4C18337910509F41CC28035F5
:1013E000910509F070C65BC18091FB029091FC02EF
:1013F000DC01ED91FC910480F581E02D099590E0F0
:101400009093070380930603CF9709F065C639C60A
:101410008091FB029091FC02DC01ED91FC91008433
:10142000F185E02D0995882309F456C68091FB02C9
:101430009091FC02DC01ED91FC910480F581E02D9E
:1014400009950E94B003A091FB02B091FC02ED91BE
:10145000FC9111970484F585E02D682FCD010BC612
:101460008091FB029091FC02DC01ED91FC910084E3
:10147000F185E02D0995823008F42EC68091FB029B
:101480009091FC02DC01ED91FC910480F581E02D4E
:101490000995182F8091FB029091FC02DC01ED91DF
:1014A000FC910480F581E02D0995682F74C180912D
:1014B000FB029091FC02DC01ED91FC910084F1852E
:1014C000E02D0995823008F407C68091FB029091C7
:1014D000FC02DC01ED91FC910480F581E02D099581
:1014E000182F8091FB029091FC02DC01ED91FC91A0
:1014F0000480F581E02D0995E0900403F090050348
:10150000813031F018F0823031F0F1C261E001C079
:1015100060E0812F8CC01C3008F06BC061E0812F2F
:101520000E940904C12ED12C5701B3E01B9FA00CCF
:10153000B11C1124F50183818C3008F0D8C261E020
:10154000812F0E940904D50113968C91282F30E039
:10155000A901440F551F240F351FF901EA52FD4F11
:101560001F739081907C192B10839601220F331FDB
:10157000C20ED31EF701EC0DFD1D148215826CE026
:101580000E94FA13BCE08B9FB001112440E050E0B0
:101590009A01260F371FF901EE0FFF1FE20FF31F0D
:1015A000EA52FD4F908196FD15C04F5F5F4F4C3062
:1015B000510571F781110EC01092800000938100D7
:1015C0001092850010928400B19A80916F00826021
:1015D00080936F00D5011396EC91F0E0CF01880F56
:1015E000991FE80FF91FEA52FD4F808180648083C4
:1015F0007EC28CE9810F8C3008F079C2282F30E050
:10160000A901440F551F240F351FF701E20FF31FE7
:10161000E381F0E09F01220F331FE20FF31FEA5234
:10162000FD4F908196FF63C29F7B908361E00E9493
:1016300009045DC28091FB029091FC02DC01ED91F6
:10164000FC910084F185E02D0995882309F444C5B7
:101650008091FB029091FC02DC01ED91FC910480F1
:10166000F581E02D09950E944504192FA091FB02F8
:10167000B091FC02ED91FC9111970484F585E02D69
:10168000682FCD0109958091FB029091FC02DC014D
:10169000ED91FC910484F585E02D612FECC48091DF
:1016A000FB029091FC02DC01ED91FC910084F1853C
:1016B000E02D0995823008F40FC58091FB029091CE
:1016C000FC02DC01ED91FC910480F581E02D09958F
:1016D000182F8091FB029091FC02DC01ED91FC91AE
:1016E0000480F581E02D0995F82EC82ED12C61E0FB
:1016F000812F0E940904C114D10409F449C0BFEF2D
:10170000CB16D10409F446C0E12FF0E0E859FF4FB1
:10171000E491E330F9F048F4E130B9F0E230A1F5BA
:1017200084B5806284BDF8BCE2C1E730E9F0E830FE
:1017300019F1E43049F58091800080628093800047
:10174000D0928B00C0928A00D2C184B5806884BDDB
:10175000F7BCCDC180918000806880938000D092DA
:101760008900C0928800C3C18091B00080688093D6
:10177000B000F092B300BBC18091B0008062809352
:10178000B000F092B400B3C1E0E8CE16D10414F476
:1017900060E001C061E0812F0E94D903A8C180915F
:1017A000FB029091FC02DC01ED91FC910084F1853B
:1017B000E02D0995823008F48FC48091FB0290914E
:1017C000FC02DC01ED91FC910480F581E02D09958E
:1017D000182F8091FB029091FC02DC01ED91FC91AD
:1017E0000480F581E02D0995409104035091050393
:1017F0001C3008F071C4682F70E04D5F5F4F212FDF
:1018000030E0C901880F991F820F931F840F951F25
:101810000E94CB046CC18091FB029091FC02DC0120
:10182000ED91FC910084F185E02D0995853008F457
:1018300053C48091FB029091FC02DC01ED91FC917C
:101840000480F581E02D0995182F8091FB0290917D
:10185000FC02DC01ED91FC910480F581E02D0995FD
:101860008D8F8091FB029091FC02DC01ED91FC9147
:101870000480F581E02D09958E8F8091FB02909177
:10188000FC02DC01ED91FC910480F581E02D0995CD
:10189000F82E8091FB029091FC02DC01ED91FC910D
:1018A0000480F581E02D0995682F70E080E090E0DC
:1018B0000E94DB1220E030E04AE754E40E943A1232
:1018C00069837A838B839C83BAE0FB9EB0011124E9
:1018D0004090040350900503EE8DFD8DFE1718F423
:1018E0007E2E7F1A03C07D8C2E8D721A80E090E0D0
:1018F0000E94DB1229813A814B815C810E948D1309
:101900006D837E838F83988720E030E040E05FE343
:101910000E948D1329813A814B815C810E948D1335
:1019200069877A878B879C8720E030E04AE754E418
:1019300069817A818B819C810E948D130E94AC12F7
:10194000812C912C540175016401872D90E0A0E059
:10195000B0E08D879E87AF87B88B9D8D892F90E0F3
:10196000A0E0B0E0898B9A8BAB8BBC8BA3E04A0ED6
:10197000511C812F90E09C01220F331F820F931F77
:101980001201280E391E862F90E0A0E0B0E08D8B6A
:101990009E8BAF8BB88F6D857E858F8598890E94D1
:1019A000DD122B013C0120E030E040E05FE30E94CB
:1019B000C8119B01AC01C701B6010E94351287FF17
:1019C00096C020E030E040E05FE3C301B2010E9436
:1019D0008D139B01AC01C701B6010E94351229810C
:1019E0003A814B815C8187FF1BC0C501B4010E9415
:1019F0008D1329853A854B855C850E94C9119B0111
:101A0000AC01C701B6010E94C9116B017C012D8197
:101A10003E814F815885C501B4010E94C9111AC089
:101A2000C501B4010E948D1329853A854B855C85DB
:101A30000E94C8119B01AC01C701B6010E94C911E7
:101A40006B017C012D813E814F815885C501B40118
:101A50000E94C8114B015C0169897A898B899C8934
:101A60000E94DD12AD8DBE8DA7019601BA1718F048
:101A70000E94C91102C00E94C8110E94AC121C3001
:101A800020F470E0C1010E94CB044D885E886F880D
:101A9000788C0E945C049B01AC01411451046104E8
:101AA000710409F478CF298F3A8F4C8F5B8F0E9495
:101AB0005C04298D3A8D4C8D5B8DDC01CB01821B42
:101AC000930BA40BB50B883E9340A105B10528F3F9
:101AD000E1E04E1A51086108710828513C4F4F4F00
:101AE0005F4F4114510461047104E9F6D6CF80912F
:101AF000FB029091FC02DC01ED91FC910484F585E0
:101B0000E02D6FEFB8C28091FB029091FC02DC01E6
:101B1000ED91FC910084F185E02D0995882309F46D
:101B2000DBC28091FB029091FC02DC01ED91FC9103
:101B30000480F581E02D0995182F0E942E08882336
:101B400019F06FEF7FEF10C0E0908600F0908700F3
:101B5000812F0E942E088111F4CF809186009091F0
:101B60008700BC016E197F098091FB029091FC02F5
:101B7000DC01ED91FC910484F585E02D698F7A8F6D
:101B800009958091FB029091FC02DC01ED91FC91A2
:101B90000484F585E02D7A8D672F6DC28091FB025C
:101BA0009091FC02DC01ED91FC910084F185E02D27
:101BB0000995833008F490C28091FB029091FC0259
:101BC000DC01ED91FC910480F581E02D0995F82E62
:101BD0008091FB029091FC02DC01ED91FC9104806C
:101BE000F581E02D0995E82E8091FB029091FC0291
:101BF000DC01ED91FC910480F581E02D0995182F11
:101C000061E08F2D0E94D903112349F08E2D0E948F
:101C10004504EBEEF5E03197F1F71150F5CF60E0B8
:101C20008F2D0E94D90328C28091FB029091FC0263
:101C3000DC01ED91FC910084F185E02D099588236C
:101C400009F44AC28091FB029091FC02DC01ED9103
:101C5000FC910480F581E02D0995182F8091FF02F9
:101C6000833009F484C040F4882369F0823009F09D
:101C700033C21093010386C0843009F486C08530D6
:101C800009F4ABC029C2133509F465C0E8F4163471
:101C9000F1F190F41134B1F1153409F01DC28091C5
:101CA000FD029091FE02DC01ED91FC910484F5852A
:101CB000E02D609100030CC11C3439F1123509F09C
:101CC0000BC21092030337C01C36C1F190F41735D4
:101CD00001F1113609F000C28091FD029091FE02DF
:101CE000DC01ED91FC910484F585E02D6091010308
:101CF000EFC01237E9F0173709F0EEC181E08093A9
:101D0000030307C00093FF02E7C183E00EC084E035
:101D10000CC08091010391E09093090280932B0203
:101D200010920A0210922C0285E08093FF02D4C127
:101D300081E0809303030E945A08CEC18091FD0286
:101D40009091FE02DC01ED91FC910484F585E02D7B
:101D500060910203BDC08091FD029091FE02DC0102
:101D6000ED91FC910484F585E02D60E0B1C0113265
:101D700038F081E08093FF02BCE4B0930003ACC173
:101D8000109302031092FF02A7C1212F30E0A0E1BF
:101D9000B7E20E94B9119B01AC0160E074E284EFEC
:101DA00090E00E949711DA01C9014097A109B10999
:101DB000B695A795979587958093B8008091FD0279
:101DC0009091FE02DC01ED91FC910484F585E02DFB
:101DD000612F09951092FF024FC180910203882361
:101DE000F1F0612F8AEC92E00E944902892B91F474
:101DF00081E08093FF0287E5809300038091FD02DC
:101E00009091FE02DC01ED91FC910484F585E02DBA
:101E100067E531C180910203815080930203809174
:101E20000203811159C11092FF028091030311E056
:101E300081270E94D107882329F01093FF02B3E580
:101E4000B0930003109203038091FD029091FE0273
:101E5000DC01ED91FC910484F585E02D6091000397
:101E60000AC18091FB029091FC02DC01ED91FC9192
:101E70000084F185E02D0995882309F42DC1809116
:101E8000FB029091FC02DC01ED91FC910480F58154
:101E9000E02D0995E091FB02F091FC020190F081A8
:101EA000E02D0484F585E02DA0910403B091050395
:101EB00099969C91953038F48EBD00000DB407FEC4
:101EC000FDCF6EB501C060E08091FB029091FC02F5
:101ED000099502C18091FB029091FC02DC01ED9119
:101EE000FC910084F185E02D0995833008F4F4C05D
:101EF0008091FB029091FC02DC01ED91FC91048049
:101F0000F581E02D0995C82E8091FB029091FC028D
:101F1000DC01ED91FC910480F581E02D0995D82E2E
:101F20008091FB029091FC02DC01ED91FC91048018
:101F3000F581E02D0995182FE091FB02F091FC024C
:101F40000190F081E02DE484F584609004037090AA
:101F500005030E94B7070E940F06B4E0BC1520F4E9
:101F60008FEFF30181A780C0D3019996CC92CFB6B1
:101F7000F89480916C01811127C0E4EAF0E094911B
:101F8000E0E9F0E08491E92FF0E0EE0FFF1FE45864
:101F9000FF4FA591B4919C91892321F461E08AE0DF
:101FA0000E94D90361E08AE00E9409048CB5806137
:101FB0008CBD8CB580648CBD61E08DE00E9409040D
:101FC00061E08BE00E94090480916C018F5F809337
:101FD0006C01CFBED3019996EC91F0E0E959FE4F28
:101FE000E081212F30E0322F2227C901A0E0B0E0AC
:101FF0009C01AD012D0D311D411D511DA4E6B0E028
:102000000E948411812C52E1952E5AE7A52EB12C05
:1020100020E0B694A794979487942F5F263031F0F0
:10202000681579058A059B0510F4F3CF27E081E058
:102030008227EC70E065982F9695E92B817090913E
:102040006E01992379F09FB7F89420916E012130A9
:1020500039F42DB320936D012DB32DBB9FBF02C06A
:1020600090936D01ECBD8DBDF30161A58091FB02E4
:102070009091FC02F7010995109207031092060354
:102080002BC0E0910403F09105034081E180F280D0
:102090008091FB029091FC02DC01ED91FC910484A3
:1020A000F585E02D642F4C8F09958091FB0290916E
:1020B000FC02DC01ED91FC910684F785E02D4C8D4E
:1020C000B7010995D9CF10920703109206030E9419
:1020D000B70781E00E94D107809100038E3461F040
:1020E0008091FB029091FC02DC01ED91FC91048453
:1020F000F585E02D6BE109950E94880129C91092B0
:10210000300210922F0288EE93E0A0E0B0E08093BE
:10211000310290933202A0933302B09334022FE144
:1021200031E030932E0220932D0225EC30E03093E5
:102130003A022093390224EC30E030933C022093A1
:102140003B0220EC30E030933E0220933D0221EC34
:1021500030E03093400220933F0222EC30E0309395
:1021600042022093410226EC30E030934402209357
:1021700043021092460210924702109248021092B7
:1021800049021092CD021092CC028093CE0290931D
:10219000CF02A093D002B093D10281E391E090935B
:1021A000CB028093CA0280E091E090932103809358
:1021B00020038091FA02A2E2B3E09FEF48EB5BE0DC
:1021C0008C3078F48C93282F30E0F901EE0FFF1F4C
:1021D0002E0F3F1FF901EA52FD4F528341838F5F5B
:1021E00001C09C93139623E0A634B20749F780936D
:1021F000FA020E94B7070E940F068FEF80934803F0
:10220000E0912003F091210380E09191992321F046
:10221000803211F08F5FF9CF80931F030E94B707C0
:102220000E940F068FEF8093480387E591E090931B
:1022300009038093080387E393E090930B03809353
:102240000A0381E293E090930D0380930C03E091E5
:102250000E03F0910F03309709F0099588E093E0A1
:1022600010920F0310920E0323E431E03093090320
:102270002093080320E133E03093190320931803DF
:1022800028E020931A0310921B0310921C03109253
:102290001D0310921E039093FC028093FB02909307
:1022A000FE028093FD021092FF028EE480930003F1
:1022B000109203038FE193E090930503809304034E
:1022C00010920703109206030895052E97FB1EF443
:1022D00000940E947C1157FD07D00E94971107FCC3
:1022E00003D04EF40C947C11509540953095219577
:1022F0003F4F4F4F5F4F0895909580957095619532
:102300007F4F8F4F9F4F08950E94B911A59F900D49
:10231000B49F900DA49F800D911D11240895B7FFC7
:102320000C9484110E948411821B930B0895A1E2E6
:102330001A2EAA1BBB1BFD010DC0AA1FBB1FEE1F3F
:10234000FF1FA217B307E407F50720F0A21BB30B8A
:10235000E40BF50B661F771F881F991F1A9469F706
:1023600060957095809590959B01AC01BD01CF0162
:102370000895A29FB001B39FC001A39F700D811D5E
:102380001124911DB29F700D811D1124911D08957E
:102390005058BB27AA270E94E0110C9453130E94A7
:1023A000451338F00E944C1320F039F49F3F19F484
:1023B00026F40C9442130EF4E095E7FB0C943C13C6
:1023C000E92F0E94641358F3BA1762077307840752
:1023D000950720F079F4A6F50C9486130EF4E09599
:1023E0000B2EBA2FA02D0B01B90190010C01CA01CF
:1023F000A0011124FF27591B99F0593F50F4503E7A
:1024000068F11A16F040A22F232F342F4427585F6B
:10241000F3CF469537952795A795F0405395C9F783
:102420007EF41F16BA0B620B730B840BBAF091503B
:10243000A1F0FF0FBB1F661F771F881FC2F70EC0DA
:10244000BA0F621F731F841F48F4879577956795AD
:10245000B795F7959E3F08F0B0CF9395880F08F099
:102460009927EE0F9795879508950E94181308F401
:1024700081E008950E944E120C9453130E944C1355
:1024800058F00E94451340F029F45F3F29F00C9466
:102490003C1351110C9487130C9442130E94641343
:1024A00068F39923B1F3552391F3951B550BBB2783
:1024B000AA2762177307840738F09F5F5F4F220FC8
:1024C000331F441FAA1FA9F335D00E2E3AF0E0E8BF
:1024D00032D091505040E695001CCAF72BD0FE2F09
:1024E00029D0660F771F881FBB1F2617370748079D
:1024F000AB07B0E809F0BB0B802DBF01FF27935855
:102500005F4F3AF09E3F510578F00C943C130C94C9
:1025100087135F3FE4F3983ED4F3869577956795EC
:10252000B795F7959F5FC9F7880F911D9695879589
:1025300097F90895E1E0660F771F881FBB1F6217A8
:1025400073078407BA0720F0621B730B840BBA0B66
:10255000EE1F88F7E09508950E946C1388F09F574E
:1025600098F0B92F9927B751B0F0E1F0660F771FB7
:10257000881F991F1AF0BA95C9F714C0B13091F0AD
:102580000E948613B1E008950C948613672F782F6C
:102590008827B85F39F0B93FCCF386957795679572
:1025A000B395D9F73EF490958095709561957F4FDE
:1025B0008F4F9F4F0895E89409C097FB3EF4909584
:1025C0008095709561957F4F8F4F9F4F9923A9F00C
:1025D000F92F96E9BB279395F6958795779567959B
:1025E000B795F111F8CFFAF4BB0F11F460FF1BC0DF
:1025F0006F5F7F4F8F4F9F4F16C0882311F096E972
:1026000011C0772321F09EE8872F762F05C066231F
:1026100071F096E8862F70E060E02AF09A95660FD8
:10262000771F881FDAF7880F9695879597F9089591
:10263000990F0008550FAA0BE0E8FEEF16161706D3
:10264000E807F907C0F012161306E407F50798F03B
:10265000621B730B840B950B39F40A2661F0232B54
:10266000242B252B21F408950A2609F4A140A695D0
:102670008FEF811D811D089597F99F6780E870E0B5
:1026800060E008959FEF80EC089500240A941616E8
:10269000170618060906089500240A941216130650
:1026A000140605060895092E0394000C11F48823DE
:1026B00052F0BB0F40F4BF2B11F460FF04C06F5FFA
:1026C0007F4F8F4F9F4F089557FD9058440F551FD0
:1026D00059F05F3F71F04795880F97FB991F61F0A4
:1026E0009F3F79F087950895121613061406551F1B
:1026F000F2CF4695F1DF08C0161617061806991F87
:10270000F1CF86957105610508940895E894BB277B
:1027100066277727CB0197F908950E94A0130C94A0
:1027200053130E94451338F00E944C1320F0952358
:1027300011F00C943C130C94421311240C94871345
:102740000E94641370F3959FC1F3950F50E0551FDD
:10275000629FF001729FBB27F00DB11D639FAA27F6
:10276000F00DB11DAA1F649F6627B00DA11D661F45
:10277000829F2227B00DA11D621F739FB00DA11D66
:10278000621F839FA00D611D221F749F3327A00D20
:10279000611D231F849F600D211D822F762F6A2FBC
:1027A00011249F5750409AF0F1F088234AF0EE0F21
:1027B000FF1FBB1F661F771F881F91505040A9F74E
:1027C0009E3F510580F00C943C130C9487135F3F9F
:1027D000E4F3983ED4F3869577956795B795F7958A
:1027E000E7959F5FC1F7FE2B880F911D9695879502
:1027F00097F90895991B79E004C0991F961708F07E
:10280000961B881F7A95C9F780950895EE0FFF1FD4
:102810000590F491E02D099481E090E0F8940C94F7
:062820001114F894FFCF33
:1028260047534F462041726475696E6F20494F2D9C
:1028360042726964676520322E3000000000001F76
:10284600018C00B7006601E800C600DA000000004F
:1028560000490219027902ED011102FD01EE0100A3
:102866000000001E035D07D002C802C502E602A4EE
:10287600027C020000000056035603560356035618
:0C288600035603560356030004080CFF21
:00000001FF
